:020000040800F2
:100000000000032019120008B9110008C1110008EE
:10001000C9110008D1110008D91100080000000022
:10002000000000000000000000000000E1110008D6
:10003000EF11000800000000FD1100080B1200087D
:1000400069120008691200086912000869120008A4
:100050006912000869120008691200086912000894
:100060006912000869120008691200086912000884
:100070006912000869120008691200086912000874
:100080006912000869120008691200086912000864
:100090006912000869120008691200086912000854
:1000A0006912000869120008691200086912000844
:1000B0006912000869120008691200086912000834
:1000C0006912000869120008691200086912000824
:1000D0006912000869120008691200086912000814
:1000E0006912000869120008691200086912000804
:1000F00069120008691200086912000869120008F4
:1001000069120008691200086912000869120008E3
:1001100069120008691200086912000869120008D3
:1001200069120008691200086912000869120008C3
:1001300069120008691200086912000869120008B3
:1001400069120008691200086912000869120008A3
:100150006912000869120008691200086912000893
:100160006912000869120008691200086912000883
:1001700069120008691200086912000800000000F6
:100180006912000869120008691200086912000863
:100190006912000869120008691200086912000853
:0C01A000691200086912000869120008CA
:1001AC0010B5054C237833B9044B13B10448AFF3A5
:1001BC0000800123237010BD1000002000000000FF
:1001CC006048000808B5034B1BB103490348AFF363
:1001DC00008008BD000000001400002060480008EA
:1001EC0053B94AB9002908BF00281CBF4FF0FF3192
:1001FC004FF0FF3000F088B9ADF1080C6DE904CE7A
:10020C0000F006F8DDF804E0DDE9022304B07047E5
:10021C002DE9F047089D0F4604468C46002B48D12B
:10022C008A42164661D9B2FA82F34BB1C3F120026D
:10023C0001FA03FC20FA02F29E4042EA0C0C9C40AC
:10024C004FEA164EB7B2BCFBFEF1220C0EFB11CCE2
:10025C0042EA0C4201FB07F0904209D9B21801F1B5
:10026C00FF3C80F0EE80904240F2EB800239324449
:10027C00121AA4B2B2FBFEF00EFB102244EA0244A6
:10028C0000FB07F7A74209D9341900F1FF3280F0BF
:10029C00DA80A74240F2D7803444023840EA014069
:1002AC00E41B00211DB1DC400023C5E90043BDE87F
:1002BC00F0878B4206D90DB1C5E900010021084633
:1002CC00BDE8F087B3FA83F1002948D1BB4202D3D1
:1002DC00824200F20781841A67EB030201209446E4
:1002EC00002DE4D0C5E9004CE1E7002A00F0928033
:1002FC00B2FA82F3002B40F0A8808A1A4FEA164E0D
:10030C001FFA86FC0121200CB2FBFEF70EFB172214
:10031C0040EA02420CFB07F0904207D9B21807F1F1
:10032C00FF3802D2904200F2E2804746121AA4B281
:10033C00B2FBFEF00EFB102244EA02440CFB00FC64
:10034C00A44507D9341900F1FF3202D2A44500F2BA
:10035C00CB801046A4EB0C0440EA0740A2E7C1F1A5
:10036C0020068B4022FA06FC4CEA030C07FA01F437
:10037C0020FA06F3F7404FEA1C49234300FA01F830
:10038C001FFA8CFEB7FBF9F01C0C09FB107744EA42
:10039C00074400FB0EF7A74202FA01F20AD91CEB44
:1003AC00040400F1FF3A80F09B80A74240F2988051
:1003BC0002386444E41B9FB2B4FBF9F309FB134409
:1003CC0047EA044403FB0EFEA64509D91CEB0404C2
:1003DC0003F1FF3780F08280A6457FD9023B64444D
:1003EC0043EA0040A4EB0E04A0FB02E7BC427346B8
:1003FC00B94663D360D05DB1B8EB030264EB09047A
:10040C0004FA06F622FA01F31E43CC40C5E9006457
:10041C0000214CE76208480842EAC1710B0C43EA20
:10042C0000438AB242EA0342B3FBF6F1E407B44656
:10043C003746B6461F23B0FBF6F0D21B41EA00410B
:10044C0061E7614614E7104628E7C3F1200120FA62
:10045C0001F29E4027FA01F19F403A434FEA164EB3
:10046C001FFA86FCB1FBFEF70EFB1710110C41EACC
:10047C00004107FB0CF8884504FA03F43AD97118CB
:10048C0007F1FF3001D288451FD8A1EB0801B1FB61
:10049C00FEF808FB0CF70EFB181192B242EA01426F
:1004AC00BA422FD2B21808F1FF31C6D2BA42C4D226
:1004BC00A8F102013244C0E7F0459CD2BEEB020326
:1004CC0067EB0C070138B94695E7A6EB08084144E1
:1004DC00B81EB1FBFEF808FB0CF7DCE73B467FE7E8
:1004EC00504667E70846FBE63444023832E7023FE1
:1004FC0032441BE7A1EB08013846B1FBFEF808FBC0
:10050C000CF7C8E7414698E7704700BF80B584B048
:10051C0002AF0346FB71074B1868FA1D4FF0FF330F
:10052C00009301234E2102F0F5F800BF0837BD46B9
:10053C0080BD00BF2C00002080B582B000AF034608
:10054C00FB71FB7943F00403DBB21846FFF7DEFFC7
:10055C00012000F009FFFB7923F00403DBB21846FD
:10056C00FFF7D4FF012000F0FFFE00BF0837BD46A7
:10057C0080BD000080B584B000AF03460A46FB7115
:10058C001346BB7197F9073023F00F035AB2094B8E
:10059C001B785BB213435AB297F9063013435BB224
:1005AC00FB73FB7B1846FFF7C7FF00BF1037BD4638
:1005BC0080BD00BF0000002080B582B000AF0346B4
:1005CC00FB71FB7923F00F03DBB200211846FFF718
:1005DC00D1FFFB791B01DBB200211846FFF7CAFFE4
:1005EC0000BF0837BD4680BD80B582B000AF034662
:1005FC00FB71FB7923F00F03DBB201211846FFF7E7
:10060C00B9FFFB791B01DBB201211846FFF7B2FFE2
:10061C0000BF0837BD4680BD80B582B000AF7860A2
:10062C001A4A7B681360322000F09EFE00213020B5
:10063C00FFF7A0FF052000F097FE00213020FFF708
:10064C0099FF012000F090FE00213020FFF792FF6F
:10065C00012000F089FE00212020FFF78BFF0120F4
:10066C0000F082FE2820FFF7A7FF0C20FFF7A4FF65
:10067C000120FFF7A1FF022000F076FE0620FFF715
:10068C009BFF00BF0837BD4680BD00BF2C0000207B
:10069C0080B584B000AF03460A46FB711346BB71AC
:1006AC004FF48043BB81FB7910333B4413F8042C8B
:1006BC00BB791344DBB25BB263F07F035BB2DBB29A
:1006CC001846FFF779FF00BF1037BD4680BD80B5D7
:1006DC0082B000AF786006E07B685A1C7A601B78A9
:1006EC001846FFF781FF7B681B78002BF4D100BF05
:1006FC0000BF0837BD4680BD80B5A2B000AF00F08A
:10070C00C1FD00F053F800F029FA00F0B9F800F040
:10071C0015F900F061F9642000F026FE002387F83B
:10072C008730012387F886301CE097F886309BB21F
:10073C005B0099B20A230122194802F0E9F803463A
:10074C00002B0AD197F887305A1C87F887208833FA
:10075C003B4497F8862003F8842C97F886300133B5
:10076C0087F8863097F98630002BDEDA00F074F9C2
:10077C0000F09CF900F0C4F90948FFF74DFF002187
:10078C000020FFF785FF0748FFF7A1FF002101209C
:10079C00FFF77EFF0448FFF79AFF00BFFDE700BF9D
:1007AC00A0020020784800088848000880B594B062
:1007BC0000AF07F1200330220021184604F01EF888
:1007CC0007F10C0300221A605A609A60DA601A6111
:1007DC000023BB60284B1B6C274A43F080531364E7
:1007EC00254B1B6C03F08053BB60BB6800237B6004
:1007FC00224B1B68214A43F4404313601F4B1B6878
:10080C0003F440437B607B6801233B624FF4A023DD
:10081C007B620223BB634FF48003FB6304233B64C2
:10082C00A8237B640223BB640723FB6407F120032A
:10083C00184602F081FD0346002B01D000F03CFA73
:10084C000F23FB6002233B6100237B614FF4A05319
:10085C00BB614FF48053FB6107F10C030521184673
:10086C0002F0E2FF0346002B01D000F025FA00BF96
:10087C005037BD4680BD00BF0038024000700040BC
:10088C0080B584B000AF3B4600221A605A609A6073
:10089C00DA60274B274A1A60254B4FF480325A6096
:1008AC00234B00229A60224B01221A61204B012219
:1008BC001A761F4B002283F820201D4B0022DA628F
:1008CC001B4B1D4A9A621A4B0022DA60184B02220B
:1008DC00DA61174B002283F83020154B01225A6144
:1008EC00134800F065FD0346002B01D000F0E4F93D
:1008FC0003233B6001237B600023BB603B4619460E
:10090C000B4800F099FD0346002B01D000F0D4F900
:10091C0002237B603B461946054800F08DFD0346DB
:10092C00002B01D000F0C8F900BF1037BD4680BDC8
:10093C00A8010020002001400100000F80B500AF8D
:10094C001F4B204A1A60204B00221A701E4B80222B
:10095C005A701D4BE1229A701B4B0022DA701A4B15
:10096C0000221A71184B00225A71154B164A5A6004
:10097C00134B4FF400029A60114B144ADA60104B7F
:10098C00134A1A610E4B40F2F4525A610C4801F0B2
:10099C0067F80346002B01D000F08EF938220021B5
:1009AC000C4803F02BFF0B4B21221A60094B4FF420
:1009BC0040025A61074B00221A6100BF80BD00BF84
:1009CC00F00100200080024068080020080100208F
:1009DC00680000203000002080B500AF1B4B1C4A83
:1009EC001A601A4B1B4A5A60184B00229A60174B1C
:1009FC000022DA60154B4FF480421A61134B00222F
:100A0C005A61124B00229A61104B0022DA610F4B93
:100A1C0000221A620D4801F039FD0346002B01D06B
:100A2C0000F04AF90021094802F0FBFA0346002BBA
:100A3C0001D000F041F90021044802F02EFB0346DE
:100A4C00002B01D000F038F900BF80BDA0020020BF
:100A5C0000540040A086010080B500AF114B124A33
:100A6C001A60104B4FF4E1325A600E4B00229A6020
:100A7C000C4B0022DA600B4B00221A61094B0C2242
:100A8C005A61084B00229A61064B0022DA61054834
:100A9C0003F0EAF80346002B01D000F00DF900BF7B
:100AAC0080BD00BFF4020020004C004080B500AFB8
:100ABC00114B124A1A60104B4FF4E1325A600E4B34
:100ACC0000229A600C4B0022DA600B4B00221A6158
:100ADC00094B0C225A61084B00229A61064B0022EA
:100AEC00DA61054803F0C0F80346002B01D000F092
:100AFC00E3F800BF80BD00BF3C030020004800406D
:100B0C0080B500AF144B4FF0A0421A60124B042278
:100B1C001A71114B0222DA710F4B00229A710E4B93
:100B2C0002225A720C4B01229A720B4B0022DA727F
:100B3C00094B00221A73084B01229A73064B0022B0
:100B4C00DA73054802F0E8FA0346002B01D000F0F6
:100B5C00B3F800BF80BD00BF8403002080B58CB00B
:100B6C0000AF07F11C0300221A605A609A60DA6029
:100B7C001A610023BB614C4B1B6B4B4A43F00403C3
:100B8C001363494B1B6B03F00403BB61BB6900236C
:100B9C007B61454B1B6B444A43F080031363424B10
:100BAC001B6B03F080037B617B6900233B613E4B35
:100BBC001B6B3D4A43F0010313633B4B1B6B03F070
:100BCC0001033B613B690023FB60374B1B6B364ACF
:100BDC0043F002031363344B1B6B03F00203FB6003
:100BEC00FB680023BB60304B1B6B2F4A43F00803A0
:100BFC0013632D4B1B6B03F00803BB60BB68002316
:100C0C007B60294B1B6B284A43F040031363264B34
:100C1C001B6B03F040037B607B68002244F2810174
:100C2C00224801F019FC00224021214801F014FC5B
:100C3C004FF40053FB614FF488133B6200237B623B
:100C4C0007F11C0319461B4801F05AFA44F28103C0
:100C5C00FB6101233B6200237B620023BB6207F133
:100C6C001C031946114801F04BFA4023FB61012388
:100C7C003B6200237B620023BB6207F11C03194615
:100C8C000B4801F03DFA8023FB6100233B620023FB
:100C9C007B6207F11C031946054801F031FA00BFCD
:100CAC003037BD4680BD00BF003802400004024012
:100CBC00001802400008024080B400AF72B600BFBA
:100CCC0000BFFDE780B483B000AF00237B60104B06
:100CDC005B6C0F4A43F4804353640D4B5B6C03F421
:100CEC0080437B607B6800233B60094B1B6C084A8C
:100CFC0043F080531364064B1B6C03F080533B6032
:100D0C003B6800BF0C37BD465DF8047B704700BFE5
:100D1C000038024080B58AB000AF786007F1140348
:100D2C0000221A605A609A60DA601A617B681B684C
:100D3C00174A934227D100233B61164B5B6C154A33
:100D4C0043F480735364134B5B6C03F480733B610B
:100D5C003B690023FB600F4B1B6B0E4A43F00103F6
:100D6C0013630C4B1B6B03F00103FB60FB68182334
:100D7C007B610323BB610023FB6107F1140319465C
:100D8C00054801F0BDF900BF2837BD4680BD00BF46
:100D9C0000200140003802400000024080B58EB0B7
:100DAC0000AF786007F1240300221A605A609A6041
:100DBC00DA601A617B681B68554A934240F0A48044
:100DCC0000233B62534B1B6B524A43F0007313637B
:100DDC00504B1B6B03F000733B623B6A0023FB61BF
:100DEC004C4B1B6B4B4A43F080631363494B1B6B9F
:100DFC0003F08063FB61FB690023BB61454B1B6BFC
:100E0C00444A43F000631363424B1B6B03F00063D3
:100E1C00BB61BB6900237B613E4B1B6B3D4A43F0BE
:100E2C00040313633B4B1B6B03F004037B617B6973
:100E3C0000233B61374B1B6B364A43F001031363B2
:100E4C00344B1B6B03F001033B613B690023FB60DC
:100E5C00304B1B6B2F4A43F0020313632D4B1B6B60
:100E6C0003F00203FB60FB680023BB60294B1B6B88
:100E7C00284A43F040031363264B1B6B03F04003DB
:100E8C00BB60BB6832237B620223BB620023FB6224
:100E9C0003233B630B237B6307F1240319461E4892
:100EAC0001F02EF986237B620223BB620023FB62D6
:100EBC0003233B630B237B6307F124031946174879
:100ECC0001F01EF94FF400537B620223BB62002336
:100EDC00FB6203233B630B237B6307F1240319465B
:100EEC000F4801F00DF94FF420537B620223BB62D3
:100EFC000023FB6203233B630B237B6307F1240377
:100F0C001946084801F0FCF800BF3837BD4680BDD3
:100F1C0000800240003802400008024000000240FD
:100F2C00000402400018024080B58AB000AF78601F
:100F3C0007F1140300221A605A609A60DA601A6191
:100F4C007B681B68194A93422CD100233B61184BD8
:100F5C001B6B174A43F002031363154B1B6B03F017
:100F6C0002033B613B694FF410737B611223BB613D
:100F7C000023FB6103233B6204237B6207F1140310
:100F8C0019460C4801F0BCF80023FB60084B1B6CA5
:100F9C00074A43F400131364054B1B6C03F4001352
:100FAC00FB60FB6800BF2837BD4680BD0054004085
:100FBC00003802400004024080B58CB000AF78606D
:100FCC0007F11C0300221A605A609A60DA601A61F9
:100FDC007B681B68424A93424BD10023BB61414B57
:100FEC001B6C404A43F4002313643E4B1B6C03F40C
:100FFC000023BB61BB6900237B613A4B1B6B394AF5
:10100C0043F001031363374B1B6B03F001037B614C
:10101C007B6900233B61334B1B6B324A43F0040367
:10102C001363304B1B6B03F004033B613B690123DF
:10103C00FB6102233B6200237B620323BB62082318
:10104C00FB6207F11C031946274801F059F84FF4CD
:10105C000063FB6102233B6200237B620323BB62C0
:10106C000823FB6207F11C031946204801F048F8DD
:10107C0031E07B681B681E4A93422CD10023FB6035
:10108C00184B1B6C174A43F480231364154B1B6CD1
:10109C0003F48023FB60FB680023BB60114B1B6BCC
:1010AC00104A43F0080313630E4B1B6B03F0080349
:1010BC00BB60BB684FF44073FB6102233B620023AF
:1010CC007B620323BB620723FB6207F11C031946F7
:1010DC00084801F015F800BF3037BD4680BD00BF91
:1010EC00004C004000380240000002400008024062
:1010FC0000480040000C024080B58AB000AF786018
:10110C0007F1140300221A605A609A60DA601A61BF
:10111C007B681B68B3F1A04F3FD100233B61214B8F
:10112C001B6B204A43F0010313631E4B1B6B03F034
:10113C0001033B613B694FF4E8537B610223BB61C4
:10114C000023FB6103233B620A237B6207F1140338
:10115C001946154800F0D4FF4FF400737B6100234F
:10116C00BB610023FB6107F1140319460E4800F024
:10117C00C7FF0C4B5B6B0B4A43F08003536300239C
:10118C00FB60084B5B6C074A43F480435364054B8C
:10119C005B6C03F48043FB60FB6800BF2837BD46E3
:1011AC0080BD00BF003802400000024080B400AF98
:1011BC0000BFFDE780B400AF00BFFDE780B400AF17
:1011CC0000BFFDE780B400AF00BFFDE780B400AF07
:1011DC0000BFFDE780B400AF00BFBD465DF8047BE7
:1011EC00704780B400AF00BFBD465DF8047B70470C
:1011FC0080B400AF00BFBD465DF8047B704780B57E
:10120C0000AF00F091F800BF80BD0000DFF834D0D3
:10121C0000F026F80C480D490D4A002302E0D45882
:10122C00C4500433C4188C42F9D30A4A0A4C002324
:10123C0001E013600432A242FBD303F0E7FAFFF79C
:10124C005BFA704700000320000000201000002013
:10125C00C04800081000002074080020FEE70000C1
:10126C0080B400AF064BD3F88830054A43F47003C2
:10127C00C2F8883000BFBD465DF8047B704700BFE4
:10128C0000ED00E080B500AF0E4B1B680D4A43F437
:10129C00007313600B4B1B680A4A43F480631360A2
:1012AC00084B1B68074A43F480731360032000F05B
:1012BC00A3FB002000F008F8FFF704FD00231846FC
:1012CC0080BD00BF003C024080B582B000AF7860AA
:1012DC00124B1A68124B1B7819464FF47A73B3FBF6
:1012EC00F1F3B2FBF3F3184600F0ADFB0346002B11
:1012FC0001D001230EE07B680F2B0AD800227968FD
:10130C004FF0FF3000F083FB064A7B68136000232C
:10131C0000E0012318460837BD4680BD04000020BC
:10132C000C0000200800002080B400AF064B1B7896
:10133C001A46064B1B681344044A136000BFBD4693
:10134C005DF8047B704700BF0C0000207008002083
:10135C0080B400AF034B1B681846BD465DF8047B98
:10136C00704700BF7008002080B584B000AF786073
:10137C00FFF7EEFFB8607B68FB60FB68B3F1FF3FE3
:10138C0005D00A4B1B781A46FB681344FB6000BF60
:10139C00FFF7DEFF0246BB68D31AFA689A42F7D809
:1013AC0000BF00BF1037BD4680BD00BF0C00002041
:1013BC0080B584B000AF78600023FB737B68002B92
:1013CC0001D1012333E07B681B6C002B09D17868B9
:1013DC00FFF7A0FC7B6800225A647B68002283F82C
:1013EC003C207B681B6C03F01003002B18D17B682E
:1013FC001B6C23F4885323F0020343F002027B6836
:10140C001A64786800F04AF97B6800225A647B6899
:10141C001B6C23F0030343F001027B681A6401E0A8
:10142C000123FB737B68002283F83C20FB7B18466E
:10143C001037BD4680BD000080B485B000AF786029
:10144C0039600023BB607B6893F83C30012B01D1E1
:10145C00022313E17B68012283F83C203B681B6864
:10146C00092B25D97B681B68D9683B681B689BB224
:10147C001A4613465B0013441E3B072202FA03F381
:10148C00DA437B681B680A40DA607B681B68D968A2
:10149C003B689A683B681B689BB2184603465B0026
:1014AC0003441E3B9A407B681B680A43DA6022E0C7
:1014BC007B681B6819693B681B689BB21A4613460C
:1014CC005B001344072202FA03F3DA437B681B68C0
:1014DC000A401A617B681B6819693B689A683B680B
:1014EC001B689BB2184603465B0003449A407B681A
:1014FC001B680A431A613B685B68062B24D87B681F
:10150C001B68596B3B685A6813469B001344053B98
:10151C001F2202FA03F3DA437B681B680A405A6302
:10152C007B681B68596B3B681B689BB218463B6811
:10153C005A6813469B001344053B00FA03F27B6880
:10154C001B680A435A634CE03B685B680C2B24D83D
:10155C007B681B68196B3B685A6813469B001344E5
:10156C00233B1F2202FA03F3DA437B681B680A4011
:10157C001A637B681B68196B3B681B689BB2184627
:10158C003B685A6813469B001344233B00FA03F252
:10159C007B681B680A431A6323E07B681B68D96A63
:1015AC003B685A6813469B001344413B1F2202FAC6
:1015BC0003F3DA437B681B680A40DA627B681B68BA
:1015CC00D96A3B681B689BB218463B685A6813463D
:1015DC009B001344413B00FA03F27B681B680A43EF
:1015EC00DA62294BFB607B681B68284A93420FD157
:1015FC003B681B68122B0BD1FB685B6823F4000261
:10160C00FB685A60FB685B6843F48002FB685A60B5
:10161C007B681B681D4A93422BD13B681B681C4A94
:10162C00934203D03B681B68112B22D1FB685B688B
:10163C0023F48002FB685A60FB685B6843F4000289
:10164C00FB685A603B681B68114A934211D1114BDD
:10165C001B68114AA2FB03239A0C13469B001344EC
:10166C005B00BB6002E0BB68013BBB60BB68002B4E
:10167C00F9D17B68002283F83C20002318461437EC
:10168C00BD465DF8047B70470023014000200140FB
:10169C00120000100400002083DE1B4380B485B0D0
:1016AC0000AF7860794BFB60FB685B6823F44032D9
:1016BC00FB685A60FB685A687B685B681A43FB6876
:1016CC005A607B681B685A687B681B6822F48072BE
:1016DC005A607B681B6859687B681B691A027B68B7
:1016EC001B680A435A607B681B685A687B681B68D6
:1016FC0022F040725A607B681B6859687B689A6854
:10170C007B681B680A435A607B681B689A687B6815
:10171C001B6822F400629A607B681B6899687B687E
:10172C00DA687B681B680A439A607B689B6A584A34
:10173C00934222D07B681B689A687B681B6822F0F6
:10174C0070629A607B681B6899687B689A6A7B6890
:10175C001B680A439A607B681B689A687B681B68E5
:10176C0022F040529A607B681B6899687B68DA6A41
:10177C007B681B680A439A600FE07B681B689A6859
:10178C007B681B6822F070629A607B681B689A68A1
:10179C007B681B6822F040529A607B681B689A68D1
:1017AC007B681B6822F002029A607B681B68996850
:1017BC007B681B7E5A007B681B680A439A607B68B7
:1017CC0093F82030002B1BD07B681B685A687B6811
:1017DC001B6842F400625A607B681B685A687B681D
:1017EC001B6822F460425A607B681B6859687B68EE
:1017FC005B6A013B5A037B681B680A435A6007E02B
:10180C007B681B685A687B681B6822F400625A600C
:10181C007B681B68DA6A7B681B6822F47002DA62E8
:10182C007B681B68D96A7B68DB69013B1A057B689E
:10183C001B680A43DA627B681B689A687B681B68C2
:10184C0022F400729A607B681B6899687B6893F835
:10185C0030305A027B681B680A439A607B681B68AD
:10186C009A687B681B6822F480629A607B681B68AC
:10187C0099687B685B699A027B681B680A439A606B
:10188C0000BF1437BD465DF8047B70470023014050
:10189C000100000F80B485B000AF78607B6803F066
:1018AC000703FB600C4BDB68BB60BA684FF6FF03A9
:1018BC001340BB60FB681A02BB68134343F0BF6361
:1018CC0043F40033BB60044ABB68D36000BF1437D9
:1018DC00BD465DF8047B704700ED00E080B400AFBE
:1018EC00044BDB681B0A03F007031846BD465DF882
:1018FC00047B704700ED00E080B483B000AF03467A
:10190C003960FB7197F90730002B0ADB3B68DAB2C0
:10191C000C4997F907301201D2B20B4483F800231B
:10192C000AE03B68DAB20849FB7903F00F03043B89
:10193C001201D2B20B441A7600BF0C37BD465DF8CB
:10194C00047B704700E100E000ED00E080B489B05A
:10195C0000AFF860B9607A60FB6803F00703FB61C5
:10196C00FB69C3F10703042B28BF0423BB61FB698C
:10197C000433062B02D9FB69033B00E000237B6197
:10198C004FF0FF32BB6902FA03F3DA43BB681A402B
:10199C007B699A404FF0FF317B6901FA03F3D9431D
:1019AC007B680B40134318462437BD465DF8047B17
:1019BC007047000080B582B000AF78607B68013B57
:1019CC00B3F1807F01D301230FE00A4A7B68013B0E
:1019DC0053600F214FF0FF30FFF78EFF054B0022B5
:1019EC009A60044B07221A60002318460837BD463C
:1019FC0080BD00BF10E000E080B582B000AF786021
:101A0C007868FFF747FF00BF0837BD4680BD80B53B
:101A1C0086B000AF0346B9607A60FB7300237B612C
:101A2C00FFF75CFF78617A68B9687869FFF78EFF19
:101A3C00024697F90F3011461846FFF75DFF00BFBD
:101A4C001837BD4680BD80B582B000AF786078682D
:101A5C00FFF7B0FF034618460837BD4680BD0000AF
:101A6C0080B584B000AF78607B68002B01D1012376
:101A7C008AE07B68D3F88430002B06D17B68202267
:101A8C00C3F884207868FFF789F90023BB60404BCA
:101A9C005B6C3F4A43F4804353643D4B5B6C03F4F3
:101AAC008043BB60BB683B4B5B683A4A23F4000342
:101ABC005360384B5A687B689B68364913434B60BC
:101ACC00344B5B687B681B6803F580531B687A6832
:101ADC00126843F0010302F580521360FFF738FCE3
:101AEC00F86011E0FFF734FC0246FB68D31AB3F53B
:101AFC00FA7F09D97B680422C3F888207B68E0222E
:101B0C00C3F8842001233FE07B681B6803F58053F6
:101B1C001B6803F00103002BE4D1786800F07AF91C
:101B2C00786800F025FA786800F07BFA7B685B68CF
:101B3C001A460021786800F0E3F97B681B68DA6BC1
:101B4C007B681B6842F40272DA637B681B68D3F80B
:101B5C000C317A68126843F4003343F06003C2F826
:101B6C000C317B681B68D3F810217B681B6842F42E
:101B7C000312C3F810217B680022C3F888207B680D
:101B8C001022C3F88420002318461037BD4680BDB0
:101B9C00003802400038014080B584B000AF786056
:101BAC0039607B681B681B68FB60FA68534B1340F9
:101BBC00FB603B689B7B5B063A68127C002A02D177
:101BCC004FF4000200E0002213433A68527C002AD2
:101BDC0002D14FF4800200E000221A433B689B685C
:101BEC001A433B68DB7F1B041A433B685B69134356
:101BFC003A68927F002A02D14FF4005200E0002292
:101C0C001A433B681B7F1B031A433B689B691A43AF
:101C1C003B681B799B0213433A6892F82020002AF8
:101C2C0002D14FF4007200E000221A433B68DB7BC8
:101C3C00DB011A433B685B6A1A433B6893F8283014
:101C4C001B011343FA681343FB607B681B68FA683B
:101C5C001A607B681B681B68FB600120FFF784FB24
:101C6C007B681B68FA681A607B681B689B69FB6061
:101C7C00FA684FF641731340FB603B689B6C1B0486
:101C8C003A6892F84C20002A01D1802200E0002210
:101C9C001A433B681B6D13433A6892F85520012A8E
:101CAC0001D1082200E0002213433A6892F8562032
:101CBC00012A01D1042200E0002213433A6892F871
:101CCC005420012A01D1022200E000221343FA68B9
:101CDC001343FB607B681B68FA689A617B681B681E
:101CEC009B69FB600120FFF73FFB7B681B68FA6870
:101CFC009A6100BF1037BD4680BD00BF0F8120FD2B
:101D0C0080B584B000AF786039607B681B6803F5E0
:101D1C0080539B69FB60FA683D4B1340FB603B684A
:101D2C001B7B002B02D14FF0806200E000223B684D
:101D3C005B7B5B0613433A68527F002A02D14FF457
:101D4C00801200E000221A433B689B7B5B051A4320
:101D5C003B685B691A433B681B7FDB011A433B689A
:101D6C009B7F9B011A433B681B6A1A433B6893F8A1
:101D7C0024309B001343FA681343FB607B681B6899
:101D8C0003F580531A46FB6893617B681B6803F567
:101D9C0080539B69FB600120FFF7E6FA7B681B68A8
:101DAC0003F580531A46FB6893613B681B795A060E
:101DBC003B689B681A433B689B691A433B681B69E9
:101DCC001A433B6893F82530DB011A433B689B6A46
:101DDC009B001A433B681B6813437A68126843F4F0
:101DEC00000302F5805213607B681B6803F5805377
:101DFC001B68FB600120FFF7B7FA7B681B6803F5D3
:101E0C0080531A46FB68136000BF1037BD4680BD77
:101E1C00233FDEF880B5A6B000AF7860012387F8C9
:101E2C004430012387F845300023FB63002387F8F7
:101E3C005330012387F85230002387F850300123A8
:101E4C0087F84230012387F83830002387F8543064
:101E5C00002387F843300023BB65002387F85C30F0
:101E6C000023FB67002387F880300023C7F88430F9
:101E7C00002387F88A30002387F888304FF480439A
:101E8C00BB644FF40063FB64002387F8893007F1CF
:101E9C00340319467868FFF77FFE01233B75012355
:101EAC007B75012387F825300123BB750023FB616B
:101EBC00002387F82430002387F826300023BB62E8
:101ECC00012387F82C3001233B734FF480333B61A3
:101EDC004FF480033B624FF40053BB61012387F83E
:101EEC002D3000233B630023BB6007F10803194628
:101EFC007868FFF705FF00BF9837BD4680BD00002E
:101F0C0080B487B000AFF860B9607A607B68053345
:101F1C001B781B027A680432127813437B61BA680F
:101F2C00114B13441A467B6913607B6803331B788F
:101F3C001A067B6802331B781B041A437B68013337
:101F4C001B781B0213437A68127813437B61BA68BF
:101F5C00064B13441A467B69136000BF1C37BD4601
:101F6C005DF8047B704700BF408002404480024013
:101F7C0080B485B000AF78600023FB603EE07B68E6
:101F8C00D968FA6813469B001344DB000B44BB6012
:101F9C00BB6800221A60BB6800225A60BB68002232
:101FAC009A60BB680022DA60B9687B68FA6806320E
:101FBC0043F82210BB681B6843F48012BB681A609C
:101FCC00FB68022B0CD87B68D968FB685A1C13463B
:101FDC009B001344DB000B441A46BB68DA6004E038
:101FEC007B68DB681A46BB68DA60BB681B6843F425
:101FFC004002BB681A60FB680133FB60FB68032B73
:10200C00BDD97B6800229A627B68DA687B681B68A2
:10201C0003F580531A6100BF1437BD465DF8047B8D
:10202C00704780B485B000AF78600023FB6048E057
:10203C007B681969FA6813469B001344DB000B4458
:10204C00BB60BB6800221A60BB6800225A60BB6888
:10205C0000229A60BB680022DA60BB6800221A6218
:10206C00BB6800225A62BB684FF000421A607B6862
:10207C005B6943F48042BB685A60BB685B6823F0C1
:10208C000042BB685A60B9687B68FA68123243F840
:10209C002210FB68022B0CD87B681969FB685A1C50
:1020AC0013469B001344DB000B441A46BB68DA60F2
:1020BC0004E07B681B691A46BB68DA60FB68013375
:1020CC00FB60FB68032BB3D97B680022DA657B6865
:1020DC0000221A667B6800229A667B680022DA6608
:1020EC007B6800229A657B681A697B681B6803F51C
:1020FC008053DA6000BF1437BD465DF8047B70472F
:10210C0080B489B000AF7860396000237B61002314
:10211C003B610023BB610023FB6177E10122FB697A
:10212C0002FA03F37B613B681B687A6913403B61DD
:10213C003A697B699A4240F066813B685B6803F0C0
:10214C000303012B05D03B685B6803F00303022BF0
:10215C0030D17B689B68BB61FB695B00032202FA90
:10216C0003F3DB43BA691340BB613B68DA68FB6974
:10217C005B0002FA03F3BA691343BB617B68BA696B
:10218C009A607B685B68BB610122FB6902FA03F30E
:10219C00DB43BA691340BB613B685B681B0903F006
:1021AC000102FB6902FA03F3BA691343BB617B6852
:1021BC00BA695A603B685B6803F00303032B17D0C2
:1021CC007B68DB68BB61FB695B00032202FA03F3EB
:1021DC00DB43BA691340BB613B689A68FB695B00DF
:1021EC0002FA03F3BA691343BB617B68BA69DA601C
:1021FC003B685B6803F00303022B23D1FB69DA080D
:10220C007B68083253F82230BB61FB6903F007038B
:10221C009B000F2202FA03F3DB43BA691340BB6144
:10222C003B681A69FB6903F007039B0002FA03F38E
:10223C00BA691343BB61FB69DA087B680832B96978
:10224C0043F822107B681B68BB61FB695B000322AF
:10225C0002FA03F3DB43BA691340BB613B685B686A
:10226C0003F00302FB695B0002FA03F3BA69134340
:10227C00BB617B68BA691A603B685B6803F44033E6
:10228C00002B00F0C0800023FB60664B5B6C654A42
:10229C0043F480435364634B5B6C03F48043FB60F7
:1022AC00FB68614AFB699B08023352F82330BB611F
:1022BC00FB6903F003039B000F2202FA03F3DB43D9
:1022CC00BA691340BB617B68584A934237D07B682C
:1022DC00574A934231D07B68564A93422BD07B6845
:1022EC00554A934225D07B68544A93421FD07B6851
:1022FC00534A934219D07B68524A934213D07B685D
:10230C00514A93420DD07B68504A934207D07B6868
:10231C004F4A934201D1092312E00A2310E008230B
:10232C000EE007230CE006230AE0052308E0042353
:10233C0006E0032304E0022302E0012300E0002373
:10234C00FA6902F0030292009340BA691343BB612D
:10235C003549FB699B080233BA6941F823203D4B90
:10236C009B68BB613B69DB43BA691340BB613B684B
:10237C005B6803F48013002B03D0BA693B691343E9
:10238C00BB61344ABB699360324BDB68BB613B6910
:10239C00DB43BA691340BB613B685B6803F4001311
:1023AC00002B03D0BA693B691343BB61294ABB6953
:1023BC00D360284B5B68BB613B69DB43BA69134054
:1023CC00BB613B685B6803F40033002B03D0BA6934
:1023DC003B691343BB611F4ABB6953601D4B1B68B0
:1023EC00BB613B69DB43BA691340BB613B685B680B
:1023FC0003F48033002B03D0BA693B691343BB61F0
:10240C00144ABB691360FB690133FB61FB690F2B39
:10241C007FF684AE00BF00BF2437BD465DF8047B59
:10242C00704700BF003802400038014000000240F5
:10243C000004024000080240000C02400010024060
:10244C000014024000180240001C02400020024010
:10245C0000240240003C014080B483B000AF78609F
:10246C000B467B8013467B707B78002B03D07A88DD
:10247C007B689A6103E07B881A047B689A6100BFD1
:10248C000C37BD465DF8047B7047000080B584B006
:10249C0000AF78607B68002B01D101232BE17B68B6
:1024AC0093F83D30DBB2002B06D17B68002283F819
:1024BC003C207868FEF738FD7B68242283F83D20A9
:1024CC007B681B681A687B681B6822F001021A6023
:1024DC007B681B681A687B681B6842F400421A60B0
:1024EC007B681B681A687B681B6822F400421A60C0
:1024FC0001F092FBF8607B685B68814A934207D8D5
:10250C00FB68804A934294BF01230023DBB206E0B0
:10251C00FB687D4A934294BF01230023DBB2002B5E
:10252C0001D00123E7E0FB68784AA2FB03239B0C54
:10253C00BB607B681B685B6823F03F017B681B6892
:10254C00BA680A435A607B681B681B6A23F03F0118
:10255C007B685B686A4A934202D8BB68013309E026
:10256C00BB684FF4967202FB03F3694AA2FB032388
:10257C009B0901337A6812680B4313627B681B68F2
:10258C00DB6923F44F4222F0FF027B685B685C49F5
:10259C008B4219D8FB68591E7B685B685B00B1FBEA
:1025AC00F3F3591C40F6FC730B40002B0AD0FB686C
:1025BC00591E7B685B685B00B1FBF3F30133C3F31B
:1025CC000B0351E004234FE07B689B68002B11D177
:1025DC00FB68581E7B6859680B465B000B44B0FBCC
:1025EC00F3F30133C3F30B03002B0CBF01230023C4
:1025FC00DBB212E0FB68581E7B6859680B469B00E7
:10260C000B4499000B44B0FBF3F30133C3F30B03FE
:10261C00002B0CBF01230023DBB2002B01D00123C4
:10262C0022E07B689B68002B0ED1FB68581E7B68F0
:10263C0059680B465B000B44B0FBF3F30133C3F357
:10264C000B0343F400430FE0FB68581E7B6859688A
:10265C000B469B000B4499000B44B0FBF3F3013386
:10266C00C3F30B0343F44043796809681343CB610C
:10267C007B681B681B6823F0C0017B68DA697B6888
:10268C001B6A1A437B681B680A431A607B681B68C9
:10269C009B6823F4034323F0FF037A6811697A687B
:1026AC00D26811437A6812680B4393607B681B688D
:1026BC00DB6823F0FF017B685A697B689B691A43CE
:1026CC007B681B680A43DA607B681B681A687B6846
:1026DC001B6842F001021A607B6800221A647B6856
:1026EC00202283F83D207B6800221A637B6800223D
:1026FC0083F83E20002318461037BD4680BD00BF2E
:10270C00A08601007F841E00FF083D0083DE1B4372
:10271C00D34D621080B588B002AFF8607A601A466B
:10272C000B467B8113463B81FEF712FE7861FB68FA
:10273C0093F83D30DBB2202B40F0E0807B690093B6
:10274C00192301227049F86800F092FA0346002B15
:10275C0001D00223D3E0FB6893F83C30012B01D16C
:10276C000223CCE0FB68012283F83C20FB681B6849
:10277C001B6803F00103012B07D0FB681B681A6868
:10278C00FB681B6842F001021A60FB681B681A6840
:10279C00FB681B6822F400621A60FB68212283F834
:1027AC003D20FB68102283F83E20FB6800221A644F
:1027BC00FB687A685A62FB683A895A85FB685B8DBC
:1027CC009AB2FB681A85FB68504ADA6279897B6990
:1027DC003A6AF86800F0CAF90346002B01D00123CD
:1027EC008DE000233B61FB681B685B693B61FB6808
:1027FC001B689B693B613B6966E07A69396AF868DA
:10280C0000F050FB0346002B0DD0FB681B6C042B17
:10281C0007D1FB681B681A68FB681B6842F40072DE
:10282C001A6001236BE0FB685B6A1A78FB681B6813
:10283C001A61FB685B6A5A1CFB685A62FB685B8D09
:10284C009BB2013B9AB2FB685A85FB681B8D013B1E
:10285C009AB2FB681A85FB681B685B6903F004037A
:10286C00042B1BD1FB681B8D002B17D0FB685B6AFC
:10287C001A78FB681B681A61FB685B6A5A1CFB6858
:10288C005A62FB685B8D9BB2013B9AB2FB685A851E
:10289C00FB681B8D013B9AB2FB681A857A69396A11
:1028AC00F86800F047FB0346002B0DD0FB681B6C4F
:1028BC00042B07D1FB681B681A68FB681B6842F481
:1028CC0000721A6001231AE0FB681B8D002B94D157
:1028DC00FB681B681A68FB681B6842F400721A607C
:1028EC00FB68202283F83D20FB68002283F83E2001
:1028FC00FB68002283F83C20002300E002231846EA
:10290C001837BD4680BD00BF020010000000FFFF5D
:10291C0080B58AB002AFF8607A603B600B467B8171
:10292C00FEF716FDF8610023BB61FB6893F83D30A0
:10293C00DBB2202B40F01181FB690093192301229B
:10294C008849F86800F094F90346002B01D0022363
:10295C0004E1FB6893F83C30012B01D10223FDE02C
:10296C00FB68012283F83C20FB681B681B6803F0A2
:10297C000103012B07D0FB681B681A68FB681B68F6
:10298C0042F001021A60FB681B681A68FB681B683E
:10299C0022F400621A60FB68242283F83D20FB6855
:1029AC0000221A64FB68704ADA62FB681B681A68BA
:1029BC00FB681B6842F480721A60FB6900933B68E9
:1029CC0000224FF00111F86800F052F90346002B79
:1029DC000DD0FB681B681B6803F48073B3F5807F14
:1029EC0003D1FB684FF400721A640323B6E07B89B1
:1029FC00DBB21A46FB681B6802F0FE021A61FEF796
:102A0C00A7FCF861FB681B685B6903F00203022BEF
:102A1C000CBF01230023DBB2FB75FB681B685B69F1
:102A2C0003F48063B3F5806F0CBF01230023DBB28A
:102A3C00BB7525E0FEF78CFC0246FB69D31A3A689D
:102A4C009A4202D33B68002B03D1FB68A02283F887
:102A5C003D20FB681B685B6903F00203022B0CBF73
:102A6C0001230023DBB2FB75FB681B685B6903F475
:102A7C008063B3F5806F0CBF01230023DBB2BB7501
:102A8C00FB6893F83D30DBB2A02B05D0FB7D002B0F
:102A9C0002D1BB7D002BCDD0FB68202283F83D20DA
:102AAC00FB681B685B6903F00203022B29D1FB68EE
:102ABC001B681A68FB681B6842F400721A600023DA
:102ACC003B61FB681B685B693B61FB681B689B692E
:102ADC003B613B69FB690093192301222149F8688A
:102AEC0000F0C6F80346002B01D0012336E0FB684A
:102AFC00202283F83D20FB68002283F83C20002331
:102B0C002CE0FB681B681A68FB681B6842F40072B7
:102B1C001A60FB681B686FF480625A61FB69009352
:102B2C00192301220F49F86800F0A2F80346002B84
:102B3C0001D0012312E0BB690133BB61BA697B6828
:102B4C009A42FFF432AFFB68202283F83D20FB68E9
:102B5C00002283F83C20012300E002231846203792
:102B6C00BD4680BD020010000000FFFF80B588B09C
:102B7C0002AFF8607A603B600B467B81FB68DB6AD6
:102B8C007B617B69082B06D07B69012B03D07B69A9
:102B9C0013F5803F08D1FB681B681A68FB681B683B
:102BAC0042F480721A600BE0FB681B6B122B07D18E
:102BBC00FB681B681A68FB681B6842F480721A6019
:102BCC003B6800937B6800224FF00111F86800F01D
:102BDC004FF80346002B0DD0FB681B681B6803F4F1
:102BEC008073B3F5807F03D1FB684FF400721A64D5
:102BFC00032335E0FB681B69B3F5804F08D17B8953
:102C0C00DBB21A46FB681B6802F0FE021A611BE07D
:102C1C007B89DB11DBB203F00603DBB263F00F033D
:102C2C00DAB2FB681B681A613B687A680E49F8686F
:102C3C0000F098F80346002B01D0012310E07B89AB
:102C4C00DAB2FB681B681A613B687A680749F86856
:102C5C0000F088F80346002B01D0012300E000238C
:102C6C0018461837BD4680BD08000100020001005F
:102C7C0080B584B000AFF860B9603B601346FB715F
:102C8C0048E03B68B3F1FF3F44D0FEF761FB0246DE
:102C9C00BB69D31A3A689A4202D33B68002B39D1EC
:102CAC00BB681B0CDBB2012B0DD1FB681B685B698D
:102CBC00DA43BB6813409BB2002B0CBF01230023EB
:102CCC00DBB21A460CE0FB681B689B69DA43BB68F5
:102CDC0013409BB2002B0CBF01230023DBB21A461E
:102CEC00FB799A4216D1FB6800221A63FB682022FA
:102CFC0083F83D20FB68002283F83E20FB681B6CA8
:102D0C0043F02002FB681A64FB68002283F83C2025
:102D1C00012323E0BB681B0CDBB2012B0DD1FB683C
:102D2C001B685B69DA43BB6813409BB2002B0CBF7A
:102D3C0001230023DBB21A460CE0FB681B689B697D
:102D4C00DA43BB6813409BB2002B0CBF012300235A
:102D5C00DBB21A46FB799A4293D0002318461037FF
:102D6C00BD4680BD80B584B000AFF860B9607A60B4
:102D7C003B6071E0FB681B685B6903F48063B3F52F
:102D8C00806F23D1FB681B681A68FB681B6842F4D0
:102D9C0000721A60FB681B686FF480625A61FB68F2
:102DAC0000221A63FB68202283F83D20FB68002276
:102DBC0083F83E20FB681B6C43F00402FB681A642A
:102DCC00FB68002283F83C20012367E07B68B3F1A9
:102DDC00FF3F41D0FEF7BCFA02463B68D31A7A6833
:102DEC009A4202D37B68002B36D1BB681B0CDBB23A
:102DFC00012B0CD1FB681B685B69DA43BB68134081
:102E0C009BB2002B14BF01230023DBB20BE0FB6849
:102E1C001B689B69DA43BB6813409BB2002B14BF41
:102E2C0001230023DBB2002B16D0FB6800221A63AF
:102E3C00FB68202283F83D20FB68002283F83E20AB
:102E4C00FB681B6C43F02002FB681A64FB680022D1
:102E5C0083F83C20012321E0BB681B0CDBB2012B67
:102E6C000CD1FB681B685B69DA43BB6813409BB2EF
:102E7C00002B14BF01230023DBB20BE0FB681B68A3
:102E8C009B69DA43BB6813409BB2002B14BF012330
:102E9C000023DBB2002B7FF46DAF002318461037F4
:102EAC00BD4680BD80B584B000AFF860B9607A6073
:102EBC0034E0F86800F086F80346002B01D00123BB
:102ECC0034E0BB68B3F1FF3F28D0FEF741FA02466D
:102EDC007B68D31ABA689A4202D3BB68002B1DD107
:102EEC00FB681B685B6903F08003802B16D0FB68C2
:102EFC0000221A63FB68202283F83D20FB68002225
:102F0C0083F83E20FB681B6C43F02002FB681A64BC
:102F1C00FB68002283F83C20012307E0FB681B6858
:102F2C005B6903F08003802BC3D100231846103754
:102F3C00BD4680BD80B584B000AFF860B9607A60E2
:102F4C0034E0F86800F03EF80346002B01D0012372
:102F5C0034E0BB68B3F1FF3F28D0FEF7F9F9024625
:102F6C007B68D31ABA689A4202D3BB68002B1DD176
:102F7C00FB681B685B6903F00403042B16D0FB6829
:102F8C0000221A63FB68202283F83D20FB68002294
:102F9C0083F83E20FB681B6C43F02002FB681A642C
:102FAC00FB68002283F83C20012307E0FB681B68C8
:102FBC005B6903F00403042BC3D1002318461037BC
:102FCC00BD4680BD80B483B000AF78607B681B6861
:102FDC005B6903F48063B3F5806F1BD17B681B685E
:102FEC006FF480625A617B6800221A637B6820222E
:102FFC0083F83D207B68002283F83E207B681B6CA5
:10300C0043F004027B681A647B68002283F83C203E
:10301C00012300E0002318460C37BD465DF8047B05
:10302C00704780B483B000AF786039607B6893F8E8
:10303C003D30DBB2202B29D17B68242283F83D2044
:10304C007B681B681A687B681B6822F001021A6097
:10305C007B681B685A6A7B681B6822F010025A62F4
:10306C007B681B68596A7B681B683A680A435A621A
:10307C007B681B681A687B681B6842F001021A6047
:10308C007B68202283F83D20002300E002231846B1
:10309C000C37BD465DF8047B704780B485B000AF3B
:1030AC00786039600023FB817B6893F83D30DBB29C
:1030BC00202B2AD17B68242283F83D207B681B6857
:1030CC001A687B681B6822F001021A607B681B6817
:1030DC005B6AFB81FB8923F00F03FB813B689AB28F
:1030EC00FB891343FB817B681B68FA895A627B68F6
:1030FC001B681A687B681B6842F001021A607B68C7
:10310C00202283F83D20002300E0022318461437C8
:10311C00BD465DF8047B704780B586B002AF786021
:10312C007B68002B01D1012301E17B681B68BB602C
:10313C007B6893F89534DBB2002B06D17B680022B8
:10314C0083F894247868FDF7D7FF7B68032283F813
:10315C009524BB68B3F1A04F02D17B6800229A7111
:10316C007B681B68184601F0A7F87B6818687B68B9
:10317C001A7C8DF8002004330ECB01F039F803468D
:10318C00002B05D07B68022283F895240123CEE026
:10319C007B681B680021184601F09FF80346002B42
:1031AC0005D07B68022283F895240123BFE000231D
:1031BC00FB734AE0FA7B79681346DB0013449B00EF
:1031CC000B44153301221A70FA7B79681346DB0025
:1031DC0013449B000B441433FA7B1A70FA7BFB7B71
:1031EC0098B279681346DB0013449B000B442E33D2
:1031FC0002461A80FA7B79681346DB0013449B0065
:10320C000B44183300221A70FA7B79681346DB00E2
:10321C0013449B000B441C3300221A60FA7B796820
:10322C001346DB0013449B000B44203300221A602E
:10323C00FA7B79681346DB0013449B000B44243360
:10324C0000221A60FB7B0133FB737B681B79FA7BD2
:10325C009A42AFD30023FB7344E0FA7B79681346A0
:10326C00DB0013449B000B4403F2552300221A701D
:10327C00FA7B79681346DB0013449B000B4403F57F
:10328C001573FA7B1A70FA7B79681346DB001344CA
:10329C009B000B4403F5167300221A70FA7B7968B5
:1032AC001346DB0013449B000B4403F517730022F9
:1032BC001A60FA7B79681346DB0013449B000B44BD
:1032CC0003F5187300221A60FA7B79681346DB0049
:1032DC0013449B000B4403F5197300221A60FB7B0B
:1032EC000133FB737B681B79FA7B9A42B5D37B68FD
:1032FC0018687B681A7C8DF8002004330ECB01F023
:10330C0039F80346002B05D07B68022283F89524FC
:10331C0001230CE07B6800225A747B68012283F83D
:10332C0095247B681B68184601F001FA00231846A7
:10333C001037BD4680BD000080B586B000AF786008
:10334C007B68002B01D1012367E27B681B6803F0CB
:10335C000103002B75D0884B9B6803F00C03042BE6
:10336C000CD0854B9B6803F00C03082B12D1824BBD
:10337C005B6803F48003B3F5800F0BD17E4B1B68A5
:10338C0003F40033002B5BD07B685B68002B57D1B8
:10339C00012342E27B685B68B3F5803F06D1764B34
:1033AC001B68754A43F4803313601DE07B685B68CF
:1033BC00B3F5A02F0CD1704B1B686F4A43F48023DC
:1033CC0013606D4B1B686C4A43F4803313600BE045
:1033DC00694B1B68684A23F480331360664B1B6887
:1033EC00654A23F4802313607B685B68002B13D041
:1033FC00FDF7AEFF386108E0FDF7AAFF02463B6916
:10340C00D31A642B01D9032307E25B4B1B6803F42B
:10341C000033002BF0D014E0FDF79AFF386108E080
:10342C00FDF796FF02463B69D31A642B01D903239F
:10343C00F3E1514B1B6803F40033002BF0D100E097
:10344C0000BF7B681B6803F00203002B63D04A4B60
:10345C009B6803F00C03002B0BD0474B9B6803F0CD
:10346C000C03082B1CD1444B5B6803F48003002B2A
:10347C0016D1414B1B6803F00203002B05D07B686F
:10348C00DB68012B01D00123C7E13B4B1B6823F008
:10349C00F8027B681B69DB00374913430B603AE089
:1034AC007B68DB68002B20D0344B01221A60FDF7BF
:1034BC004FFF386108E0FDF74BFF02463B69D31A1A
:1034CC00022B01D90323A8E12B4B1B6803F0020349
:1034DC00002BF0D0284B1B6823F0F8027B681B698B
:1034EC00DB00254913430B6015E0244B00221A60C6
:1034FC00FDF72EFF386108E0FDF72AFF02463B6915
:10350C00D31A022B01D9032387E11B4B1B6803F051
:10351C000203002BF0D17B681B6803F00803002B1F
:10352C0036D07B685B69002B16D0154B01221A60D4
:10353C00FDF70EFF386108E0FDF70AFF02463B6914
:10354C00D31A022B01D9032367E10B4B5B6F03F0FA
:10355C000203002BF0D01BE0094B00221A60FDF790
:10356C00F7FE38610EE0FDF7F3FE02463B69D31A15
:10357C00022B07D9032350E10038024000004742D8
:10358C00800E4742884B5B6F03F00203002BEAD19D
:10359C007B681B6803F00403002B00F0978000236A
:1035AC00FB75814B1B6C03F08053002B0FD1002358
:1035BC00BB607D4B1B6C7C4A43F0805313647A4B8D
:1035CC001B6C03F08053BB60BB680123FB75774B0E
:1035DC001B6803F48073002B18D1744B1B68734A5F
:1035EC0043F480731360FDF7B3FE386108E0FDF718
:1035FC00AFFE02463B69D31A022B01D903230CE11F
:10360C006A4B1B6803F48073002BF0D07B689B68BB
:10361C00012B06D1644B1B6F634A43F00103136704
:10362C001CE07B689B68052B0CD15F4B1B6F5E4AC3
:10363C0043F0040313675C4B1B6F5B4A43F00103BD
:10364C0013670BE0584B1B6F574A23F001031367AA
:10365C00554B1B6F544A23F0040313677B689B681C
:10366C00002B15D0FDF774FE38610AE0FDF770FEF3
:10367C0002463B69D31A41F28832934201D90323A3
:10368C00CBE0494B1B6F03F00203002BEED014E090
:10369C00FDF75EFE38610AE0FDF75AFE02463B6913
:1036AC00D31A41F28832934201D90323B5E03E4B41
:1036BC001B6F03F00203002BEED1FB7D012B05D118
:1036CC00394B1B6C384A23F0805313647B689B691D
:1036DC00002B00F0A180344B9B6803F00C03082BEB
:1036EC005CD07B689B69022B41D1314B00221A6064
:1036FC00FDF72EFE386108E0FDF72AFE02463B6915
:10370C00D31A022B01D9032387E0274B1B6803F044
:10371C000073002BF0D17B68DA697B681B6A1A4353
:10372C007B685B6A9B011A437B689B6A5B08013B65
:10373C001B041A437B68DB6A1B061B4913434B6053
:10374C001B4B01221A60FDF703FE386108E0FDF700
:10375C00FFFD02463B69D31A022B01D903235CE01F
:10376C00114B1B6803F00073002BF0D054E0104B8E
:10377C0000221A60FDF7ECFD386108E0FDF7E8FD6A
:10378C0002463B69D31A022B01D9032345E0064BB1
:10379C001B6803F00073002BF0D13DE07B689B6944
:1037AC00012B07D1012338E00038024000700040A3
:1037BC00600047421B4B5B68FB607B689B69012B7D
:1037CC0028D0FB6803F480027B68DB699A4221D124
:1037DC00FB6803F03F027B681B6A9A421AD1FA68B5
:1037EC0047F6C07313407A68526A9201934211D122
:1037FC00FB6803F440327B689B6A5B08013B1B044B
:10380C009A4207D1FB6803F070627B68DB6A1B0687
:10381C009A4201D0012300E0002318461837BD4618
:10382C0080BD00BF0038024080B584B000AF786026
:10383C0039607B68002B01D10123CCE0684B1B68FD
:10384C0003F00F033A689A420CD9654B3A68D2B22E
:10385C001A70634B1B6803F00F033A689A4201D04D
:10386C000123B8E07B681B6803F00203002B20D017
:10387C007B681B6803F00403002B05D0594B9B6835
:10388C00584A43F4E05393607B681B6803F00803C9
:10389C00002B05D0534B9B68524A43F46043936012
:1038AC00504B9B6823F0F0027B689B684D49134397
:1038BC008B607B681B6803F00103002B44D07B6892
:1038CC005B68012B07D1474B1B6803F40033002BBB
:1038DC0019D101237FE07B685B68022B03D07B68E6
:1038EC005B68032B07D13F4B1B6803F00073002B65
:1038FC0009D101236FE03B4B1B6803F00203002B43
:10390C0001D1012367E0374B9B6823F003027B68EE
:10391C005B68344913438B60FDF71AFDF8600AE0CD
:10392C00FDF716FD0246FB68D31A41F2883293422A
:10393C0001D903234FE02B4B9B6803F00C027B68EF
:10394C005B689B009A42EBD1254B1B6803F00F037D
:10395C003A689A420CD2224B3A68D2B21A70204B77
:10396C001B6803F00F033A689A4201D0012332E03E
:10397C007B681B6803F00403002B08D0194B9B6871
:10398C0023F4E0527B68DB68164913438B607B6839
:10399C001B6803F00803002B09D0124B9B6823F41F
:1039AC0060427B681B69DB000E4913438B6000F09F
:1039BC0021F802460B4B9B681B0903F00F030A49C5
:1039CC00CB5C22FA03F3094A1360094B1B681846B7
:1039DC00FDF77AFC002318461037BD4680BD00BFAA
:1039EC00003C0240003802409848000804000020C7
:1039FC00080000202DE9B04F94B000AF00237B6489
:103A0C000023FB6400233B640023BB64794B9B685D
:103A1C0003F00C03082B0DD0082B00F2E180002BD7
:103A2C0002D0042B03D0DBE0734BBB64DBE0734BA5
:103A3C00BB64D8E06F4B5B6803F03F037B646D4B5A
:103A4C005B6803F48003002B63D06A4B5B689B09B3
:103A5C000022BB63FA63BB6BC3F308033B63002315
:103A6C007B63D7E90C4522462B464FF000004FF004
:103A7C000001590141EAD261500102460B46214630
:103A8C00511A3961294663EB01037B614FF0000247
:103A9C004FF00003D7E904AB59468B01514643EA7A
:103AAC00916351468A015146B2EB0108594663EBCA
:103ABC0001094FF000024FF000034FEAC90343EA3B
:103ACC0058734FEAC80290469946234618EB0303F5
:103ADC00BB602B4649EB0303FB604FF000024FF039
:103AEC000003D7E9024529464B02214643EAD1534C
:103AFC0021464A02104619467B6C0022BB62FA62D0
:103B0C00D7E90A23FCF76CFB02460B461346FB6411
:103B1C0058E0384B5B689B09002218461146C0F3ED
:103B2C0008033B6200237B62D7E9088942464B4677
:103B3C004FF000004FF00001590141EAD2615001F1
:103B4C0002460B464146B2EB010A494663EB010BB8
:103B5C004FF000024FF000034FEA8B1343EA9A63D5
:103B6C004FEA8A12B2EB0A0463EB0B054FF000022A
:103B7C004FF00003EB0043EA5473E20014461D4679
:103B8C004346E3183B604B4645EB03037B604FF029
:103B9C0000024FF00003D7E9004529468B0221466D
:103BAC0043EA915321468A02104619467B6C002247
:103BBC00BB61FA61D7E90623FCF712FB02460B4600
:103BCC001346FB640B4B5B681B0C03F003030133C4
:103BDC005B003B64FA6C3B6CB2FBF3F3BB6402E03E
:103BEC00054BBB6400BFBB6C18465037BD46BDE8E7
:103BFC00B08F00BF003802400024F40000127A009D
:103C0C0080B400AF034B1B681846BD465DF8047BBF
:103C1C00704700BF0400002080B500AFFFF7F0FF35
:103C2C000246054B9B689B0A03F007030349CB5CD8
:103C3C0022FA03F3184680BD00380240A848000859
:103C4C0080B500AFFFF7DCFF0246054B9B685B0BB2
:103C5C0003F007030349CB5C22FA03F3184680BD3B
:103C6C0000380240A848000880B582B000AF7860E8
:103C7C007B68002B01D1012342E07B6893F8413033
:103C8C00DBB2002B06D17B68002283F840207868D9
:103C9C00FDF792F97B68242283F841207B681B682E
:103CAC00DA687B681B6822F40052DA60786800F0EE
:103CBC002BF87B681B681A697B681B6822F490429E
:103CCC001A617B681B685A697B681B6822F02A02A0
:103CDC005A617B681B68DA687B681B6842F4005287
:103CEC00DA607B6800225A647B68202283F84120CA
:103CFC007B68202283F842207B6800225A630023D1
:103D0C0018460837BD4680BD2DE9B04FC0B000AF96
:103D1C00C7F8F400D7F8F4301B681B6923F4405043
:103D2C00D7F8F430D968D7F8F4301A6840EA0103B0
:103D3C001361D7F8F4309A68D7F8F4301B691A433A
:103D4C00D7F8F4305B691A43D7F8F430DB691343C6
:103D5C00C7F8F830D7F8F4301B68DB6823F4164149
:103D6C0021F00C01D7F8F4301A68D7F8F8300B436F
:103D7C00D360D7F8F4301B685B6923F44070D7F834
:103D8C00F4309969D7F8F4301A6840EA01035361AA
:103D9C00D7F8F4301A688F4B9A4205D0D7F8F43024
:103DAC001A688D4B9A4204D1FFF74AFFC7F8FC0002
:103DBC0003E0FFF731FFC7F8FC00D7F8F430DB69FC
:103DCC00B3F5004F40F00C81D7F8FC300022C7F857
:103DDC00E830C7F8EC20D7E93A4522462B46911833
:103DEC00B9655B41FB65D7E91623214612EB010847
:103DFC00294643EB01094FF000024FF000034FEA54
:103E0C00C90343EA58734FEAC802904699462346C1
:103E1C0018EB0303C7F8E0302B4649EB0303C7F854
:103E2C00E430D7F8F4305B680022C7F8D830C7F814
:103E3C00DC20D7E936120B46DB183B65134642EB08
:103E4C0003037B65D7E91423D7E93801FCF7C8F9DC
:103E5C0002460B46614BA3FB02235B091C01D7F8FE
:103E6C00FC300022C7F8D030C7F8D420D7E9348909
:103E7C0042464B469118B9645B41FB64D7E9122367
:103E8C00414612EB010A494643EB010B4FF000028D
:103E9C004FF000034FEACB0343EA5A734FEACA02CE
:103EAC0092469B4643461AEB0303C7F8C8304B4671
:103EBC004BEB0303C7F8CC30D7F8F4305B68002227
:103ECC00C7F8C030C7F8C420D7E930120B46DB184E
:103EDC003B64134642EB03037B64D7E91023D7E919
:103EEC003201FCF77DF902460B4611463B4BA3FB16
:103EFC0001235B09642202FB03F3CB1ADB0003F101
:103F0C003202364BA3FB02235B095B0003F4F8730C
:103F1C001C44D7F8FC300022C7F8B830C7F8BC20D6
:103F2C00D7E92E8942464B469118B9635B41FB6336
:103F3C00D7E90E2341465118396349464B417B63FF
:103F4C004FF000024FF00003D7E90CAB5946CB0001
:103F5C00514643EA51735146CA001046194603466E
:103F6C0042469B18C7F8B0304B460A4642EB030357
:103F7C00C7F8B430D7F8F4305B680022C7F8A83023
:103F8C00C7F8AC20D7E92A120B46DB18BB621346E4
:103F9C0042EB0303FB62D7E90A23D7E92C01FCF7B8
:103FAC001FF902460B460D4BA3FB02135B09642160
:103FBC0001FB03F3D31ADB003233084AA2FB0323C1
:103FCC005B0903F00702D7F8F4301B6822449A60AF
:103FDC0006E100BF00100140001401401F85EB51A9
:103FEC00D7F8FC300022C7F8A030C7F8A420D7E9D6
:103FFC00288942464B46911839625B417B62D7E96E
:10400C00082341465418494643EB01054FF0000282
:10401C004FF00003EB0043EA5473E20014461D46D4
:10402C004346E318C7F898304B4645EB0303C7F8F3
:10403C009C30D7F8F4305B680022C7F89030C7F892
:10404C0094204FF000024FF00003D7E92445294695
:10405C008B00214643EA917321468A00D7E9260159
:10406C00FCF7BEF802460B46604BA3FB02235B0930
:10407C001C01D7F8FC300022C7F88830C7F88C2018
:10408C00D7E9228942464B469118B9615B41FB61E5
:10409C00D7E9062341465118396149464B417B61AA
:1040AC004FF000024FF00003D7E904AB5946CB00A8
:1040BC00514643EA51735146CA001046194603460D
:1040CC0042469B18C7F880304B460A4642EB030326
:1040DC00C7F88430D7F8F4305B680022BB67FA6706
:1040EC004FF000024FF00003D7E91E8949468B00C0
:1040FC00414643EA917341468A00D7E92001FCF717
:10410C006FF802460B461146384BA3FB01235B09A3
:10411C00642202FB03F3CB1A1B013233334AA2FB9A
:10412C0003235B0903F0F0031C44D7F8FC30002296
:10413C003B677A67D7E91C8942464B469118B960B0
:10414C005B41FB60D7E9022341465118396049466F
:10415C004B417B604FF000024FF00003D7E900ABFE
:10416C005946CB00514643EA51735146CA0010469A
:10417C001946034642469B18BB664B460A4642EB21
:10418C000303FB66D7F8F4305B6800223B667A6663
:10419C004FF000024FF00003D7E9188949468B0015
:1041AC00414643EA917341468A00D7E91A01FCF76C
:1041BC0017F802460B460D4BA3FB02135B09642157
:1041CC0001FB03F3D31A1B013233084AA2FB03236E
:1041DC005B0903F00F02D7F8F4301B6822449A6095
:1041EC0000BF07F58077BD46BDE8B08F1F85EB514A
:1041FC0084B080B584B000AF786007F11C0080E813
:10420C000E0097F82130012B23D17B689B6B23F494
:10421C0080327B689A637B68DB6823F4840323F029
:10422C0040037A68D3607B68DB6823F440127B68B8
:10423C00DA6097F82830012B05D17B68DB6843F4F2
:10424C0080127B68DA60786800F0A0FA0346FB7392
:10425C001BE07B68DB6843F040027B68DA607868BF
:10426C0000F094FA0346FB7397F82530002B06D127
:10427C007B689B6B43F480327B689A6305E07B68B8
:10428C009B6B23F480327B689A63BB7F012B0BD131
:10429C007B689B6843F006027B689A607B689B682E
:1042AC0043F020027B689A60FB7B18461037BD46B2
:1042BC00BDE8804004B0704780B483B000AF786034
:1042CC007B689B6823F001027B689A600023184688
:1042DC000C37BD465DF8047B704780B584B000AFE9
:1042EC0078600B46FB700023FB607B68DB6823F077
:1042FC00C0427B68DA60FB78012B15D17B68DB68E8
:10430C0043F000527B68DA600A20FDF72DF8FB6859
:10431C000A33FB60786800F02BFA0346012B1ED0A1
:10432C00FB68C72BF0D91AE0FB78002B15D17B6802
:10433C00DB6843F080427B68DA600A20FDF714F8F2
:10434C00FB680A33FB60786800F012FA0346002B16
:10435C0005D0FB68C72BF0D901E0012305E0FB6811
:10436C00C82B01D1012300E0002318461037BD46AD
:10437C0080BD000084B080B586B000AF786007F1D6
:10438C00240080E80E000023FB757B68FB60002393
:10439C003B6109E07A683B6940339B00134400227F
:1043AC005A603B6901333B613B690E2BF2D997F89C
:1043BC002E30002B1CD1FB6803F500635B68FA6898
:1043CC0002F5006243F0020353607B689B6B43F47D
:1043DC0000127B689A637B689B6B23F400227B68DA
:1043EC009A637B689B6B23F480227B689A630BE057
:1043FC007B689B6B23F400127B689A637B689B6BD6
:10440C0043F400227B689A63FB6803F560631A46E9
:10441C000023136097F82930012B0DD197F8273022
:10442C00002B04D10021786800F068F908E0012124
:10443C00786800F063F903E00321786800F05EF916
:10444C001021786800F0FAF80346002B01D0012304
:10445C00FB75786800F024F90346002B01D001238A
:10446C00FB75FB6803F500631A4600231361FB68B8
:10447C0003F500631A4600235361FB6803F50063E0
:10448C001A460023D36100233B6143E03B695A0188
:10449C00FB68134403F510631B6803F00043B3F18E
:1044AC00004F18D13B69002B0AD13B695A01FB68BC
:1044BC00134403F510631A464FF00063136013E0C6
:1044CC003B695A01FB68134403F510631A464FF01D
:1044DC009043136008E03B695A01FB68134403F5F1
:1044EC0010631A46002313603B695A01FB6813449E
:1044FC0003F510631A46002313613B695A01FB68EC
:10450C00134403F510631A464FF67F3393603B69EF
:10451C0001333B6197F824301A463B699342B5D37B
:10452C0000233B6143E03B695A01FB68134403F5EC
:10453C0030631B6803F00043B3F1004F18D13B69A3
:10454C00002B0AD13B695A01FB68134403F5306315
:10455C001A464FF00063136013E03B695A01FB6885
:10456C00134403F530631A464FF09043136008E090
:10457C003B695A01FB68134403F530631A46002368
:10458C0013603B695A01FB68134403F530631A4608
:10459C00002313613B695A01FB68134403F5306334
:1045AC001A464FF67F3393603B6901333B6197F8B2
:1045BC0024301A463B699342B5D3FB6803F500637C
:1045CC001B69FA6802F5006223F4807313617B683F
:1045DC0000229A617B686FF080425A6197F826300E
:1045EC00002B05D17B689B6943F010027B689A61B4
:1045FC007B689A69104B13437A68936197F82A3059
:10460C00002B05D07B689B6943F008027B689A619C
:10461C0097F82E30012B07D17B689B6943F08043C0
:10462C0043F004037A689361FB7D18461837BD4646
:10463C00BDE8804004B0704700383C8080B485B041
:10464C0000AF786039600023FB60FB680133FB60CE
:10465C00FB68B3F1706F01D903231BE07B681B6906
:10466C00002BF2DA0023FB603B689B0143F0200235
:10467C007B681A61FB680133FB60FB68B3F1706FF8
:10468C0001D9032306E07B681B6903F02003202B70
:10469C00F0D0002318461437BD465DF8047B7047F4
:1046AC0080B485B000AF78600023FB60FB680133F9
:1046BC00FB60FB68B3F1706F01D9032318E07B68D2
:1046CC001B69002BF2DA0023FB607B6810221A6155
:1046DC00FB680133FB60FB68B3F1706F01D90323F6
:1046EC0006E07B681B6903F01003102BF0D000234D
:1046FC0018461437BD465DF8047B704780B485B00E
:10470C0000AF78600B46FB707B68FB60FB6803F5C1
:10471C0000631A68FB78F96801F5006113430B60BC
:10472C00002318461437BD465DF8047B704780B4EF
:10473C0085B000AF78607B68FB60FB6803F5606355
:10474C001B68FA6802F5606223F003031360FB68D0
:10475C0003F500635B68FA6802F5006243F002033C
:10476C005360002318461437BD465DF8047B704730
:10477C0080B483B000AF78607B685B6903F00103A1
:10478C0018460C37BD465DF8047B704780B485B085
:10479C0000AF78600023FB60FB680133FB60FB68B3
:1047AC00B3F1706F01D9032322E07B681B69002BE6
:1047BC00F2DA0A23FB6002E0FB68013BFB60FB685A
:1047CC00002BF9D17B681B6943F001027B681A61ED
:1047DC00FB680133FB60FB68B3F1706F01D90323F5
:1047EC0006E07B681B6903F00103012BF0D000236A
:1047FC0018461437BD465DF8047B704702440346E7
:10480C00934200D1704703F8011BF9E770B50D4BCB
:10481C000D4D5B1B9C100026A64209D100F01AF826
:10482C000A4D0B4B5B1B9C100026A64205D170BD9C
:10483C0055F8043B98470136EEE755F8043B98478A
:10484C000136F2E7B8480008B8480008B848000834
:10485C00BC480008F8B500BFF8BC08BC9E467047C1
:0C486C00F8B500BFF8BC08BC9E467047C1
:1048780048656C6C6F2C20576F726C6421000000C7
:1048880053544D3332202B20493243204C434400AB
:1048980000000000000000000102030406070809E8
:0848A8000000000001020304FE
:0848B0006CB9FF7F010000005C
:0448B800D101000822
:0448BC00AD01000842
:1048C000080000000024F4001000000001000000B7
:0400000508001219C4
:00000001FF
