:020000040800F2
:1000000000000320C11F0008D51D0008DD1D0008E9
:10001000E51D0008ED1D0008F51D000800000000AA
:10002000000000000000000000000000FD1D0008AE
:100030000B1E000800000000191E0008271E000803
:1000400011200008112000081120000811200008CC
:1000500011200008112000081120000811200008BC
:1000600011200008112000081120000811200008AC
:10007000112000081120000811200008112000089C
:10008000112000081120000811200008112000088C
:10009000112000081120000811200008112000087C
:1000A000112000081120000811200008112000086C
:1000B000112000081120000811200008112000085C
:1000C000112000081120000811200008112000084C
:1000D000112000081120000811200008112000083C
:1000E000112000081120000811200008112000082C
:1000F000112000081120000811200008112000081C
:10010000112000081120000811200008112000080B
:1001100011200008112000081120000811200008FB
:1001200011200008112000081120000811200008EB
:1001300011200008112000081120000811200008DB
:1001400011200008112000081120000811200008CB
:1001500011200008112000081120000811200008BB
:1001600011200008112000081120000811200008AB
:1001700011200008112000081120000800000000D4
:10018000112000081120000811200008112000088B
:10019000112000081120000811200008112000087B
:0C01A000112000081120000811200008A8
:1001B00010B5054C237833B9044B13B10448AFF3A1
:1001C00000800123237010BDD80100200000000032
:1001D0004887000808B5034B1BB103490348AFF338
:1001E000008008BD00000000DC01002048870008F6
:1001F00001F0FF01102A2BDB10F0070F08D010F8D8
:10020000013B013A8B422DD010F0070F42B3F6D1DB
:10021000F0B441EA012141EA014122F007047FF0F4
:1002200000070023F0E80256083C85EA010586EA4B
:10023000010685FA47F5A3FA87F586FA47F6A5FA87
:1002400087F68EB9EED1F0BC01F0FF0102F0070293
:1002500032B110F8013B013A83EA010313B1F8D13E
:100260000020704701387047002D06BF354603381F
:10027000073815F0010F07D1013015F4807F02BF58
:10028000013015F4C03F0130F0BC0138704700BFA9
:10029000034613F8012B002AFBD1181A01387047C6
:1002A00081F0004102E000BF83F0004330B54FEA27
:1002B00041044FEA430594EA050F08BF90EA020F94
:1002C0001FBF54EA000C55EA020C7FEA645C7FEA27
:1002D000655C00F0E2804FEA5454D4EB5555B8BF4A
:1002E0006D420CDD2C4480EA020281EA030382EABB
:1002F000000083EA010180EA020281EA0303362D4D
:1003000088BF30BD11F0004F4FEA01314FF4801C1F
:100310004CEA113102D0404261EB410113F0004F31
:100320004FEA03334CEA133302D0524263EB4303E8
:1003300094EA050F00F0A780A4F10104D5F1200E86
:100340000DDB02FA0EFC22FA05F2801841F10001E1
:1003500003FA0EF2801843FA05F359410EE0A5F1B5
:1003600020050EF1200E012A03FA0EFC28BF4CF0E6
:10037000020C43FA05F3C01851EBE37101F000459C
:1003800007D54FF0000EDCF1000C7EEB00006EEBA9
:100390000101B1F5801F1BD3B1F5001F0CD3490833
:1003A0005FEA30004FEA3C0C04F101044FEA44528A
:1003B00012F5800F80F09A80BCF1004F08BF5FEA11
:1003C000500C50F1000041EB045141EA050130BDF1
:1003D0005FEA4C0C404141EB0101013C28BFB1F503
:1003E000801FE9D291F0000F04BF01460020B1FA4E
:1003F00081F308BF2033A3F10B03B3F120020CDA21
:100400000C3208DD02F1140CC2F10C0201FA0CF0FE
:1004100021FA02F10CE002F11402D8BFC2F1200C63
:1004200001FA02F120FA0CFCDCBF41EA0C01904019
:10043000E41AA2BF01EB0451294330BD6FEA040462
:100440001F3C1CDA0C340EDC04F11404C4F120024D
:1004500020FA04F001FA02F340EA030021FA04F35F
:1004600045EA030130BDC4F10C04C4F1200220FAB6
:1004700002F001FA04F340EA0300294630BD21FAF4
:1004800004F0294630BD94F0000F83F4801306BFBA
:1004900081F480110134013D4EE77FEA645C18BFAE
:1004A0007FEA655C29D094EA050F08BF90EA020F45
:1004B00005D054EA000C04BF1946104630BD91EA3D
:1004C000030F1EBF0021002030BD5FEA545C05D140
:1004D0004000494128BF41F0004130BD14F580047F
:1004E0003CBF01F5801130BD01F0004545F0FE41F3
:1004F00041F470014FF0000030BD7FEA645C1ABF28
:10050000194610467FEA655C1CBF0B46024650EA5E
:10051000013406BF52EA033591EA030F41F400218A
:1005200030BD00BF90F0000F04BF0021704730B510
:100530004FF4806404F132044FF000054FF00001E5
:1005400050E700BF90F0000F04BF0021704730B5A6
:100550004FF4806404F1320410F0004548BF40427B
:100560004FF000013EE700BF42004FEAE2014FEAD0
:1005700031014FEA02701FBF12F07F4393F07F4FAB
:1005800081F06051704732F07F4208BF704793F0AE
:100590007F4F04BF41F40021704730B54FF46074C1
:1005A00001F0004521F000411CE700BF50EA0102C4
:1005B00008BF704730B54FF000050AE050EA01026D
:1005C00008BF704730B511F0004502D5404261EBDD
:1005D00041014FF4806404F132045FEA915C3FF41E
:1005E000D8AE4FF003025FEADC0C18BF03325FEABB
:1005F000DC0C18BF033202EBDC02C2F1200300FA6C
:1006000003FC20FA02F001FA03FE40EA0E0021FA90
:1006100002F11444BDE600BF70B54FF0FF0C4CF47E
:10062000E06C1CEA11541DBF1CEA135594EA0C0F30
:1006300095EA0C0F00F0DEF82C4481EA030621EA6B
:100640004C5123EA4C5350EA013518BF52EA0335A6
:1006500041F4801143F4801338D0A0FB02CE4FF058
:100660000005E1FB02E506F00042E0FB03E54FF088
:100670000006E1FB03569CF0000F18BF4EF0010E80
:10068000A4F1FF04B6F5007F64F5407404D25FEA7C
:100690004E0E6D4146EB060642EAC62141EA55512F
:1006A0004FEAC52040EA5E504FEACE2EB4F1FD0C71
:1006B00088BFBCF5E06F1ED8BEF1004F08BF5FEAEF
:1006C000500E50F1000041EB045170BD06F00046A1
:1006D00046EA010140EA020081EA0301B4EB5C044E
:1006E000C2BFD4EB0C0541EA045170BD41F4801146
:1006F0004FF0000E013C00F3AB8014F1360FDEBF6B
:10070000002001F0004170BDC4F10004203C35DA46
:100710000C341BDC04F11404C4F1200500FA05F3C9
:1007200020FA04F001FA05F240EA020001F000426A
:1007300021F0004110EBD37021FA04F642EB0601E0
:100740005EEA430E08BF20EAD37070BDC4F10C040A
:10075000C4F1200500FA04F320FA05F001FA04F2CE
:1007600040EA020001F0004110EBD37041F10001BA
:100770005EEA430E08BF20EAD37070BDC4F12005C5
:1007800000FA05F24EEA020E20FA04F301FA05F22D
:1007900043EA020321FA04F001F0004121FA04F2D5
:1007A00020EA020000EBD3705EEA430E08BF20EAA5
:1007B000D37070BD94F0000F0FD101F000464000DF
:1007C00041EB010111F4801F08BF013CF7D041EA61
:1007D000060195F0000F18BF704703F00046520065
:1007E00043EB030313F4801F08BF013DF7D043EA36
:1007F0000603704794EA0C0F0CEA135518BF95EAEC
:100800000C0F0CD050EA410618BF52EA4306D1D172
:1008100081EA030101F000414FF0000070BD50EA91
:10082000410606BF1046194652EA430619D094EA1B
:100830000C0F02D150EA013613D195EA0C0F05D105
:1008400052EA03361CBF104619460AD181EA030159
:1008500001F0004141F0FE4141F470014FF0000011
:1008600070BD41F0FE4141F4780170BD70B54FF0AC
:10087000FF0C4CF4E06C1CEA11541DBF1CEA13552C
:1008800094EA0C0F95EA0C0F00F0A7F8A4EB05040E
:1008900081EA030E52EA03354FEA013100F0888005
:1008A0004FEA03334FF0805545EA131343EA1263CE
:1008B0004FEA022245EA111545EA10654FEA002683
:1008C0000EF000419D4208BF964244F1FD0404F53C
:1008D000407402D25B084FEA3202B61A65EB030598
:1008E0005B084FEA32024FF480104FF4002CB6EB55
:1008F000020E75EB030E22BFB61A754640EA0C00D5
:100900005B084FEA3202B6EB020E75EB030E22BF14
:10091000B61A754640EA5C005B084FEA3202B6EB55
:10092000020E75EB030E22BFB61A754640EA9C0014
:100930005B084FEA3202B6EB020E75EB030E22BFE4
:10094000B61A754640EADC0055EA060E18D04FEAA2
:10095000051545EA16754FEA06164FEAC30343EA42
:1009600052734FEAC2025FEA1C1CC0D111F4801F0F
:100970000BD141EA00014FF000004FF0004CB6E708
:1009800011F4801F04BF01430020B4F1FD0C88BFA7
:10099000BCF5E06F3FF6AFAEB5EB030C04BFB6EBB2
:1009A000020C5FEA500C50F1000041EB045170BDA5
:1009B0000EF0004E4EEA113114EB5C04C2BFD4EBD2
:1009C0000C0541EA045170BD41F480114FF0000E56
:1009D000013C90E645EA060E8DE60CEA135594EAD2
:1009E0000C0F08BF95EA0C0F3FF43BAF94EA0C0FD5
:1009F0000AD150EA01347FF434AF95EA0C0F7FF44A
:100A000025AF104619462CE795EA0C0F06D152EA9D
:100A100003353FF4FDAE1046194622E750EA410681
:100A200018BF52EA43067FF4C5AE50EA41047FF492
:100A30000DAF52EA43057FF4EBAE12E74FF0FF3CF7
:100A400006E000BF4FF0010C02E000BF4FF0010CC8
:100A50004DF804CD4FEA410C7FEA6C5C4FEA430C41
:100A600018BF7FEA6C5C1BD001B050EA410C0CBF90
:100A700052EA430C91EA030F02BF90EA020F0020F2
:100A8000704710F1000F91EA030F58BF994208BF59
:100A900090422CBFD8176FEAE37040F00100704716
:100AA0004FEA410C7FEA6C5C02D150EA013C07D16D
:100AB0004FEA430C7FEA6C5CD6D152EA033CD3D0B8
:100AC0005DF8040B704700BF8446104662468C46B2
:100AD0001946634600E000BF01B5FFF7B7FF0028E5
:100AE00048BF10F1000F01BD4DF808EDFFF7F4FF0E
:100AF0000CBF012000205DF808FB00BF4DF808ED99
:100B0000FFF7EAFF34BF012000205DF808FB00BFBB
:100B10004DF808EDFFF7E0FF94BF012000205DF8DD
:100B200008FB00BF4DF808EDFFF7CEFF94BF012092
:100B300000205DF808FB00BF4DF808EDFFF7C4FF8B
:100B400034BF012000205DF808FB00BF4FEA410CD4
:100B50007FEA6C5C02D150EA013C0AD14FEA430CB7
:100B60007FEA6C5C02D152EA033C02D14FF00000F4
:100B700070474FF0010070474FEA410212F5001232
:100B800015D211D56FF47873B3EB625212D94FEAD4
:100B9000C12343F0004343EA505311F0004F23FABE
:100BA00002F018BF404270474FF00000704750EA13
:100BB000013005D111F0004008BF6FF000407047D0
:100BC0004FF00000704700BF4FEA4102B2F1E0432E
:100BD00024BFB3F5001CDCF1FE5C0DD901F0004C24
:100BE0004FEAC0024CEA5070B2F1004F40EB830074
:100BF00008BF20F00100704711F0804F21D113F1A0
:100C00003872BCBF01F00040704741F480114FEAD8
:100C10005252C2F11802C2F1200C10FA0CF320FA61
:100C200002F018BF40F001004FEAC1234FEAD3237E
:100C300003FA0CFC40EA0C0023FA02F34FEA4303E8
:100C4000CCE77FEA625307D150EA01331EBF4FF071
:100C5000FE4040F44000704701F0004040F0FE408C
:100C600040F40000704700BF53B94AB9002908BFDB
:100C700000281CBF4FF0FF314FF0FF3000F088B963
:100C8000ADF1080C6DE904CE00F006F8DDF804E0E3
:100C9000DDE9022304B070472DE9F047089D0F46B7
:100CA00004468C46002B48D18A42164661D9B2FAD6
:100CB00082F34BB1C3F1200201FA03FC20FA02F2E5
:100CC0009E4042EA0C0C9C404FEA164EB7B2BCFB69
:100CD000FEF1220C0EFB11CC42EA0C4201FB07F0A4
:100CE000904209D9B21801F1FF3C80F0EE809042A9
:100CF00040F2EB8002393244121AA4B2B2FBFEF089
:100D00000EFB102244EA024400FB07F7A74209D970
:100D1000341900F1FF3280F0DA80A74240F2D78028
:100D20003444023840EA0140E41B00211DB1DC409C
:100D30000023C5E90043BDE8F0878B4206D90DB119
:100D4000C5E9000100210846BDE8F087B3FA83F148
:100D5000002948D1BB4202D3824200F20781841AA3
:100D600067EB030201209446002DE4D0C5E9004C56
:100D7000E1E7002A00F09280B2FA82F3002B40F003
:100D8000A8808A1A4FEA164E1FFA86FC0121200C11
:100D9000B2FBFEF70EFB172240EA02420CFB07F003
:100DA000904207D9B21807F1FF3802D2904200F200
:100DB000E2804746121AA4B2B2FBFEF00EFB1022EC
:100DC00044EA02440CFB00FCA44507D9341900F1A5
:100DD000FF3202D2A44500F2CB801046A4EB0C04F3
:100DE00040EA0740A2E7C1F120068B4022FA06FC48
:100DF0004CEA030C07FA01F420FA06F3F7404FEA35
:100E00001C49234300FA01F81FFA8CFEB7FBF9F0E6
:100E10001C0C09FB107744EA074400FB0EF7A742BD
:100E200002FA01F20AD91CEB040400F1FF3A80F047
:100E30009B80A74240F2988002386444E41B9FB232
:100E4000B4FBF9F309FB134447EA044403FB0EFE29
:100E5000A64509D91CEB040403F1FF3780F082801A
:100E6000A6457FD9023B644443EA0040A4EB0E044C
:100E7000A0FB02E7BC427346B94663D360D05DB1C4
:100E8000B8EB030264EB090404FA06F622FA01F354
:100E90001E43CC40C5E9006400214CE762084808C5
:100EA00042EAC1710B0C43EA00438AB242EA0342B0
:100EB000B3FBF6F1E407B4463746B6461F23B0FB52
:100EC000F6F0D21B41EA004161E7614614E71046A3
:100ED00028E7C3F1200120FA01F29E4027FA01F130
:100EE0009F403A434FEA164E1FFA86FCB1FBFEF7CD
:100EF0000EFB1710110C41EA004107FB0CF8884566
:100F000004FA03F43AD9711807F1FF3001D2884589
:100F10001FD8A1EB0801B1FBFEF808FB0CF70EFB94
:100F2000181192B242EA0142BA422FD2B21808F125
:100F3000FF31C6D2BA42C4D2A8F102013244C0E79E
:100F4000F0459CD2BEEB020367EB0C070138B946B3
:100F500095E7A6EB08084144B81EB1FBFEF808FB74
:100F60000CF7DCE73B467FE7504667E70846FBE6C1
:100F70003444023832E7023F32441BE7A1EB080158
:100F80003846B1FBFEF808FB0CF7C8E7414698E786
:100F9000704700BF80B584B002AF0346FB71074BBA
:100FA0001868FA1D4FF0FF33009301234E2102F021
:100FB00025FE00BF0837BD4680BD00BFF4010020FC
:100FC00080B582B000AF0346FB71FB7943F00403A8
:100FD000DBB21846FFF7DEFF012001F09FF8FB7936
:100FE00023F00403DBB21846FFF7D4FF012001F021
:100FF00095F800BF0837BD4680BD000080B584B0BD
:1010000000AF03460A46FB711346BB7197F90730E0
:1010100023F00F035AB2094B1B785BB213435AB249
:1010200097F9063013435BB2FB73FB7B1846FFF75F
:10103000C7FF00BF1037BD4680BD00BF00000020C5
:1010400080B582B000AF0346FB71FB7923F00F033C
:10105000DBB200211846FFF7D1FFFB791B01DBB2A1
:1010600000211846FFF7CAFF00BF0837BD4680BD04
:1010700080B582B000AF0346FB71FB7923F00F030C
:10108000DBB201211846FFF7B9FFFB791B01DBB288
:1010900001211846FFF7B2FF00BF0837BD4680BDEB
:1010A00080B582B000AF78601A4A7B681360322046
:1010B00001F034F800213020FFF7A0FF052001F0F7
:1010C0002DF800213020FFF799FF012001F026F8CC
:1010D00000213020FFF792FF012001F01FF80021CE
:1010E0002020FFF78BFF012001F018F82820FFF7E0
:1010F000A7FF0C20FFF7A4FF0120FFF7A1FF0220AC
:1011000001F00CF80620FFF79BFF00BF0837BD4633
:1011100080BD00BFF401002080B584B000AF03465D
:101120000A46FB711346BB714FF48043BB81FB79C8
:1011300010333B4413F8042CBB791344DBB25BB28D
:1011400063F07F035BB2DBB21846FFF779FF00BFA5
:101150001037BD4680BD80B582B000AF786006E034
:101160007B685A1C7A601B781846FFF781FF7B6802
:101170001B78002BF4D100BF00BF0837BD4680BDEF
:1011800080B58EB000AF00F057FF00F0A7F800F078
:101190009BFA00F06FF900F00BF900F085F900F010
:1011A000D1F900F00FFA00F037FA00F05FFA464884
:1011B000FFF776FF07F1240300221A605A6007F157
:1011C000240302221946414801F010F87B6AC3F358
:1011D0000B0213469B001A443D4BA3FB0213D21A89
:1011E00052081344DB0A1846FFF79CF930A3D3E9F1
:1011F0000023FFF711FA02460B4610461946FFF787
:10120000E3FC03467B63BB6AC3F30B0213469B00FC
:101210001A442F4BA3FB0213D21A52081344DB0AC1
:1012200007EE903AF8EE677AC7ED0C7A386BFFF765
:101230009BF921A3D3E90023FFF736F802460B46BA
:10124000104619461EA3D3E90023FFF70FFB024601
:101250000B4610461946FFF7B7FC0346FB62002118
:101260000020FFF759FF786BFFF77EF902460B4627
:10127000381D184905F064F83B1D1846FFF76BFF51
:1012800000210120FFF748FFF86AFFF76DF90246D9
:101290000B46381D104905F053F83B1D1846FFF763
:1012A0005AFF4FF4FA7000F039FF00BF8EE700BF1D
:1012B00033333333333313407D3F355EBA49FA3F1E
:1012C0009A9999999999B93F680400207003002070
:1012D00001011000608700086887000880B594B09D
:1012E00000AF07F1200330220021184605F00EF967
:1012F00007F10C0300221A605A609A60DA601A61E2
:101300000023BB60284B1B6C274A43F080531364B7
:10131000254B1B6C03F08053BB60BB6800237B60D4
:10132000224B1B68214A43F4404313601F4B1B6848
:1013300003F440437B607B6801233B624FF4A023AE
:101340007B620223BB634FF48003FB6304233B6493
:10135000A8237B640223BB640723FB6407F12003FB
:10136000184603F02FF90346002B01D000F05AFA7B
:101370000F23FB6002233B6100237B614FF4A053EA
:10138000BB614FF48053FB6107F10C030521184644
:1013900003F090FB0346002B01D000F043FA00BF9E
:1013A0005037BD4680BD00BF00380240007000408D
:1013B00080B584B000AF3B4600221A605A609A6044
:1013C000DA60294B294A1A60274B4FF480325A6061
:1013D000254B00229A60244B01221A61224B0122E4
:1013E0001A76214B002283F820201F4B0022DA625C
:1013F0001D4B1F4A9A621C4B0022DA601A4B0222D4
:10140000DA61194B012283F83020174B00225A6110
:10141000154800F0A7FE0346002B01D000F002FAA9
:1014200003233B6001237B600323BB603B461946DB
:101430000D4801F00DF80346002B01D000F0F2F941
:101440000A233B6002237B600323BB603B461946B3
:10145000054800F0FDFF0346002B01D000F0E2F943
:1014600000BF1037BD4680BD700300200020014042
:101470000100000F80B483B000AF00237B60094BF4
:101480001B6B084A43F480031363064B1B6B03F486
:1014900080037B607B6800BF0C37BD465DF8047B32
:1014A000704700BF0038024080B500AF1F4B204A94
:1014B0001A60204B00221A701E4B80225A701D4B5E
:1014C000E1229A701B4B0022DA701A4B00221A712B
:1014D000184B00225A71154B164A5A60134B4FF4A1
:1014E00000029A60114B144ADA60104B134A1A61D9
:1014F0000E4B40F2F4525A610C4801F025FD0346B0
:10150000002B01D000F08EF9382200210C4804F0A5
:10151000FDFF0B4B21221A60094B4FF440025A6128
:10152000074B00221A6100BF80BD00BFB803002036
:1015300000800240300A0020D0020020300200204B
:10154000F801002080B500AF1B4B1C4A1A601A4BF3
:101550001B4A5A60184B00229A60174B0022DA602F
:10156000154B4FF480421A61134B00225A61124B03
:1015700000229A61104B0022DA610F4B00221A629E
:101580000D4802F0F7F90346002B01D000F04AF9AC
:101590000021094802F08BFE0346002B01D000F029
:1015A00041F90021044802F0BEFE0346002B01D0A1
:1015B00000F038F900BF80BD6804002000540040EE
:1015C000A086010080B500AF114B124A1A60104B83
:1015D0004FF4E1325A600E4B00229A600C4B00220D
:1015E000DA600B4B00221A61094B0C225A61084B3E
:1015F00000229A61064B0022DA61054803F07AFC6A
:101600000346002B01D000F00DF900BF80BD00BFE4
:10161000BC040020004C004080B500AF114B124AC2
:101620001A60104B4FF4E1325A600E4B00229A6060
:101630000C4B0022DA600B4B00221A61094B0C2282
:101640005A61084B00229A61064B0022DA61054874
:1016500003F050FC0346002B01D000F0E3F800BF7C
:1016600080BD00BF040500200048004080B500AFE9
:10167000144B4FF0A0421A60124B04221A71114B06
:101680000222DA710F4B00229A710E4B02225A721B
:101690000C4B01229A720B4B0022DA72094B00228A
:1016A0001A73084B01229A73064B0022DA7305481D
:1016B00002F078FE0346002B01D000F0B3F800BF23
:1016C00080BD00BF4C05002080B58CB000AF07F195
:1016D0001C0300221A605A609A60DA601A610023C3
:1016E000BB614C4B1B6B4B4A43F004031363494BE8
:1016F0001B6B03F00403BB61BB6900237B61454B9B
:101700001B6B444A43F080031363424B1B6B03F093
:1017100080037B617B6900233B613E4B1B6B3D4A31
:1017200043F0010313633B4B1B6B03F001033B616D
:101730003B690023FB60374B1B6B364A43F00203C7
:101740001363344B1B6B03F00203FB60FB68002345
:10175000BB60304B1B6B2F4A43F0080313632D4BC8
:101760001B6B03F00803BB60BB6800237B60294B45
:101770001B6B284A43F040031363264B1B6B03F09B
:1017800040037B607B68002244F28101224802F022
:10179000D7F800224021214802F0D2F84FF400533C
:1017A000FB614FF488133B6200237B6207F11C034B
:1017B00019461B4801F018FF44F28103FB61012325
:1017C0003B6200237B620023BB6207F11C031946C6
:1017D000114801F009FF4023FB6101233B62002314
:1017E0007B620023BB6207F11C0319460B4801F022
:1017F000FBFE8023FB6100233B6200237B6207F139
:101800001C031946054801F0EFFE00BF3037BD4606
:1018100080BD00BF003802400004024000180240B2
:101820000008024080B400AF72B600BF00BFFDE701
:1018300080B483B000AF00237B60104B5B6C0F4A19
:1018400043F4804353640D4B5B6C03F480437B6033
:101850007B6800233B60094B1B6C084A43F08053B4
:101860001364064B1B6C03F080533B603B6800BF66
:101870000C37BD465DF8047B704700BF003802405E
:1018800080B58CB000AF786007F11C0300221A60AD
:101890005A609A60DA601A617B681B68434A934217
:1018A0007FD10023BB61424B5B6C414A43F48073A0
:1018B00053643F4B5B6C03F48073BB61BB690023D3
:1018C0007B613B4B1B6B3A4A43F001031363384B7C
:1018D0001B6B03F001037B617B6900233B61344B8D
:1018E0001B6B334A43F004031363314B1B6B03F050
:1018F00004033B613B690023FB602D4B1B6B2C4AAF
:1019000043F4800313632A4B1B6B03F48003FB60D7
:10191000FB680823FB6103233B6200237B6207F122
:101920001C031946234801F05FFE0123FB610323DA
:101930003B6200237B6207F11C0319461E4801F03D
:1019400053FE1E4B1E4A1A601C4B00225A601B4B52
:1019500000229A60194B0022DA60184B4FF4806223
:101960001A61164B4FF400625A61144B4FF4005247
:101970009A61124B4FF48072DA61104B00221A62A6
:101980000E4B00225A620D4801F0F8F80346002B76
:1019900001D0FFF747FF7B68084A9A63074A7B68D4
:1019A000936300BF3037BD4680BD00BF00200140BB
:1019B000003802400000024000080240380A0020BF
:1019C0001064024080B58EB000AF786007F1240348
:1019D00000221A605A609A60DA601A617B681B689C
:1019E000554A934240F0A48000233B62534B1B6B4B
:1019F000524A43F000731363504B1B6B03F00073A8
:101A00003B623B6A0023FB614C4B1B6B4B4A43F030
:101A100080631363494B1B6B03F08063FB61FB69BD
:101A20000023BB61454B1B6B444A43F000631363C7
:101A3000424B1B6B03F00063BB61BB6900237B61FE
:101A40003E4B1B6B3D4A43F0040313633B4B1B6B44
:101A500003F004037B617B6900233B61374B1B6B05
:101A6000364A43F001031363344B1B6B03F001034D
:101A70003B613B690023FB60304B1B6B2F4A43F0FB
:101A8000020313632D4B1B6B03F00203FB60FB6827
:101A90000023BB60294B1B6B284A43F040031363B0
:101AA000264B1B6B03F04003BB60BB6832237B6299
:101AB0000223BB620023FB6203233B630B237B6394
:101AC00007F1240319461E4801F08EFD86237B6230
:101AD0000223BB620023FB6203233B630B237B6374
:101AE00007F124031946174801F07EFD4FF4005317
:101AF0007B620223BB620023FB6203233B630B2355
:101B00007B6307F1240319460F4801F06DFD4FF484
:101B100020537B620223BB620023FB6203233B63EF
:101B20000B237B6307F124031946084801F05CFD91
:101B300000BF3837BD4680BD0080024000380240FB
:101B40000008024000000240000402400018024069
:101B500080B58AB000AF786007F1140300221A60E4
:101B60005A609A60DA601A617B681B68194A93426E
:101B70002CD100233B61184B1B6B174A43F0020327
:101B80001363154B1B6B03F002033B613B694FF47E
:101B900040737B611223BB610023FB6103233B6223
:101BA00004237B6207F1140319460C4801F01CFD65
:101BB0000023FB60084B1B6C074A43F400131364BB
:101BC000054B1B6C03F40013FB60FB6800BF283758
:101BD000BD4680BD00540040003802400004024071
:101BE00080B58CB000AF786007F11C0300221A604A
:101BF0005A609A60DA601A617B681B68424A9342B5
:101C00004BD10023BB61414B1B6C404A43F4002382
:101C100013643E4B1B6C03F40023BB61BB690023C0
:101C20007B613A4B1B6B394A43F001031363374B1B
:101C30001B6B03F001037B617B6900233B61334B2A
:101C40001B6B324A43F004031363304B1B6B03F0EE
:101C500004033B613B690123FB6102233B620023D8
:101C60007B620323BB620823FB6207F11C03194656
:101C7000274801F0B9FC4FF40063FB6102233B628B
:101C800000237B620323BB620823FB6207F11C0372
:101C90001946204801F0A8FC31E07B681B681E4A09
:101CA00093422CD10023FB60184B1B6C174A43F462
:101CB00080231364154B1B6C03F48023FB60FB68CB
:101CC0000023BB60114B1B6B104A43F008031363E6
:101CD0000E4B1B6B03F00803BB60BB684FF44073F3
:101CE000FB6102233B6200237B620323BB62072369
:101CF000FB6207F11C031946084801F075FC00BFA0
:101D00003037BD4680BD00BF004C00400038024067
:101D1000000002400008024000480040000C024061
:101D200080B58AB000AF786007F1140300221A6012
:101D30005A609A60DA601A617B681B68B3F1A04F41
:101D40003FD100233B61214B1B6B204A43F0010331
:101D500013631E4B1B6B03F001033B613B694FF4A4
:101D6000E8537B610223BB610023FB6103233B62D9
:101D70000A237B6207F114031946154801F034FC6D
:101D80004FF400737B610023BB610023FB6107F10B
:101D9000140319460E4801F027FC0C4B5B6B0B4AF1
:101DA00043F0800353630023FB60084B5B6C074ADE
:101DB00043F480435364054B5B6C03F48043FB6046
:101DC000FB6800BF2837BD4680BD00BF0038024019
:101DD0000000024080B400AF00BFFDE780B400AF58
:101DE00000BFFDE780B400AF00BFFDE780B400AFE7
:101DF00000BFFDE780B400AF00BFFDE780B400AFD7
:101E000000BFBD465DF8047B704780B400AF00BFE3
:101E1000BD465DF8047B704780B400AF00BFBD468F
:101E20005DF8047B704780B500AF00F057F900BF44
:101E300080BD80B400AF01231846BD465DF8047B29
:101E4000704780B582B000AF7860396004F066FBFF
:101E5000034616221A604FF0FF3318460837BD4676
:101E600080BD80B582B000AF78604FF0FF317868F8
:101E7000FFF7E7FF00BFFDE780B586B000AFF86071
:101E8000B9607A6000237B610AE0AFF3008001460D
:101E9000BB685A1CBA60CAB21A707B6901337B6195
:101EA0007A697B689A42F0DB7B6818461837BD4632
:101EB00080BD80B586B000AFF860B9607A6000235D
:101EC0007B6109E0BB685A1CBA601B781846AFF307
:101ED00000807B6901337B617A697B689A42F1DB20
:101EE0007B6818461837BD4680BD80B483B000AF0C
:101EF00078604FF0FF3318460C37BD465DF8047B21
:101F0000704780B483B000AF786039603B684FF4AD
:101F100000525A60002318460C37BD465DF8047B1A
:101F2000704780B483B000AF7860012318460C3747
:101F3000BD465DF8047B704780B485B000AFF860A3
:101F4000B9607A60002318461437BD465DF8047BFB
:101F50007047000080B586B000AF7860144A154B1A
:101F6000D31A7B617B693B61134B1B68002B02D149
:101F7000114B124A1A60104B1A687B6813443A6975
:101F80009A4207D204F0CAFA03460C221A604FF0B4
:101F9000FF3309E0084B1B68FB60074B1A687B683E
:101FA0001344054A1360FB6818461837BD4680BDC8
:101FB0000000032000040000980A0020F00B00201D
:101FC000DFF834D000F026F80C480D490D4A002304
:101FD00002E0D458C4500433C4188C42F9D30A4ADE
:101FE0000A4C002301E013600432A242FBD304F048
:101FF0009BFAFFF7C5F8704700000320000000209F
:10200000D8010020148B0008D8010020EC0B002020
:10201000FEE7000080B400AF064BD3F88830054AD5
:1020200043F47003C2F8883000BFBD465DF8047BFE
:10203000704700BF00ED00E080B500AF0E4B1B689D
:102040000D4A43F4007313600B4B1B680A4A43F4B8
:1020500080631360084B1B68074A43F48073136066
:10206000032000F057FD002000F008F8FFF7E0FB28
:102070000023184680BD00BF003C024080B582B0FE
:1020800000AF7860124B1A68124B1B7819464FF458
:102090007A73B3FBF1F3B2FBF3F3184600F061FD82
:1020A0000346002B01D001230EE07B680F2B0AD8DA
:1020B000002279684FF0FF3000F037FD064A7B6858
:1020C0001360002300E0012318460837BD4680BD99
:1020D000040000200C0000200800002080B400AFA5
:1020E000064B1B781A46064B1B681344044A1360C0
:1020F00000BFBD465DF8047B704700BF0C000020A8
:102100009C0A002080B400AF034B1B681846BD46F4
:102110005DF8047B704700BF9C0A002080B584B046
:1021200000AF7860FFF7EEFFB8607B68FB60FB688C
:10213000B3F1FF3F05D00A4B1B781A46FB681344E6
:10214000FB6000BFFFF7DEFF0246BB68D31AFA68E8
:102150009A42F7D800BF00BF1037BD4680BD00BF10
:102160000C00002080B584B000AF78600023FB73C2
:102170007B68002B01D1012333E07B681B6C002BB3
:1021800009D17868FFF77CFB7B6800225A647B6882
:10219000002283F83C207B681B6C03F01003002BAB
:1021A00018D17B681B6C23F4885323F0020343F09F
:1021B00002027B681A64786800F07CFA7B6800226F
:1021C0005A647B681B6C23F0030343F001027B68B5
:1021D0001A6401E00123FB737B68002283F83C2032
:1021E000FB7B18461037BD4680BD000080B588B027
:1021F00000AFF860B9607A6000237B610023FB7751
:10220000FB6893F83C30012B01D10223EBE0FB6823
:10221000012283F83C20FB681B689B6803F00103E4
:10222000012B18D0FB681B689A68FB681B6842F09A
:1022300001029A606E4B1B686E4AA2FB03239A0C44
:1022400013465B0013447B6102E07B69013B7B61C9
:102250007B69002BF9D1FB681B689B6803F48073D2
:10226000B3F5807F07D1FB681B689A68FB681B6821
:1022700022F480729A60FB681B689B6803F001037C
:10228000012B40F0A380FB681B6C23F4E06323F078
:10229000010343F48072FB681A64FB681B685B6887
:1022A00003F48063002B07D0FB681B6C23F44053BE
:1022B00043F48052FB681A64FB681B6C03F4805380
:1022C000B3F5805F06D1FB685B6C23F00602FB6808
:1022D0005A6402E0FB6800225A64FB68002283F81B
:1022E0003C20454BBB61FB689B6B444ADA63FB684F
:1022F0009B6B434A1A64FB689B6B424ADA64FB6837
:102300001B686FF022021A60FB681B685A68FB6842
:102310001B6842F080625A60FB681B689A68FB6821
:102320001B6842F480729A60FB68986BFB681B68BC
:102330004C331946BA687B6800F0CEFC0346FB7745
:10234000BB695B6803F01F03002B2AD1FB681B6885
:102350002D4A934215D0FB681B682C4A934205D145
:10236000254B5B6803F01F03002B0AD0FB681B683A
:10237000274A934236D1204B5B6803F01003002BB1
:1023800030D1FB681B689B6803F04053002B29D1B8
:10239000FB681B689A68FB681B6842F080429A6081
:1023A00020E0FB681B68184A93421BD1FB681B683E
:1023B0009B6803F04053002B14D1FB681B689A689C
:1023C000FB681B6842F080429A600BE0FB681B6C64
:1023D00043F01002FB681A64FB685B6C43F0010277
:1023E000FB685A64FB7F18462037BD4680BD00BF9E
:1023F0000400002083DE1B4300230140AD280008B9
:1024000067290008832900080020014000210140BD
:102410000022014080B483B000AF786000BF0C3769
:10242000BD465DF8047B704780B483B000AF786030
:1024300000BF0C37BD465DF8047B704780B483B0A5
:1024400000AF786000BF0C37BD465DF8047B704775
:1024500080B485B000AF786039600023BB607B68D2
:1024600093F83C30012B01D1022313E17B68012258
:1024700083F83C203B681B68092B25D97B681B68C7
:10248000D9683B681B689BB21A4613465B0013442D
:102490001E3B072202FA03F3DA437B681B680A40FB
:1024A000DA607B681B68D9683B689A683B681B6880
:1024B0009BB2184603465B0003441E3B9A407B6870
:1024C0001B680A43DA6022E07B681B6819693B6875
:1024D0001B689BB21A4613465B001344072202FA9C
:1024E00003F3DA437B681B680A401A617B681B6848
:1024F00019693B689A683B681B689BB2184603469B
:102500005B0003449A407B681B680A431A613B687E
:102510005B68062B24D87B681B68596B3B685A683C
:1025200013469B001344053B1F2202FA03F3DA43D0
:102530007B681B680A405A637B681B68596B3B6861
:102540001B689BB218463B685A6813469B001344AD
:10255000053B00FA03F27B681B680A435A634CE0B0
:102560003B685B680C2B24D87B681B68196B3B6845
:102570005A6813469B001344233B1F2202FA03F3BD
:10258000DA437B681B680A401A637B681B68196B17
:102590003B681B689BB218463B685A6813469B0011
:1025A0001344233B00FA03F27B681B680A431A6357
:1025B00023E07B681B68D96A3B685A6813469B0016
:1025C0001344413B1F2202FA03F3DA437B681B6882
:1025D0000A40DA627B681B68D96A3B681B689BB259
:1025E00018463B685A6813469B001344413B00FA67
:1025F00003F27B681B680A43DA62294BFB607B6845
:102600001B68284A93420FD13B681B68122B0BD1E1
:10261000FB685B6823F40002FB685A60FB685B6838
:1026200043F48002FB685A607B681B681D4A934232
:102630002BD13B681B681C4A934203D03B681B6844
:10264000112B22D1FB685B6823F48002FB685A607F
:10265000FB685B6843F40002FB685A603B681B68D8
:10266000114A934211D1114B1B68114AA2FB03235B
:102670009A0C13469B0013445B00BB6002E0BB68EE
:10268000013BBB60BB68002BF9D17B68002283F85B
:102690003C20002318461437BD465DF8047B704784
:1026A000002301400020014012000010040000201F
:1026B00083DE1B4380B485B000AF7860794BFB604C
:1026C000FB685B6823F44032FB685A60FB685A6819
:1026D0007B685B681A43FB685A607B681B685A68B2
:1026E0007B681B6822F480725A607B681B6859689B
:1026F0007B681B691A027B681B680A435A607B6807
:102700001B685A687B681B6822F040725A607B68BD
:102710001B6859687B689A687B681B680A435A6023
:102720007B681B689A687B681B6822F400629A6069
:102730007B681B6899687B68DA687B681B680A435A
:102740009A607B689B6A584A934222D07B681B68D8
:102750009A687B681B6822F070629A607B681B68CD
:1027600099687B689A6A7B681B680A439A607B68F1
:102770001B689A687B681B6822F040529A607B68ED
:102780001B6899687B68DA6A7B681B680A439A60F1
:102790000FE07B681B689A687B681B6822F0706298
:1027A0009A607B681B689A687B681B6822F04052BD
:1027B0009A607B681B689A687B681B6822F002023B
:1027C0009A607B681B6899687B681B7E5A007B68EF
:1027D0001B680A439A607B6893F82030002B1BD05B
:1027E0007B681B685A687B681B6842F400625A6009
:1027F0007B681B685A687B681B6822F460425A60D9
:102800007B681B6859687B685B6A013B5A037B687D
:102810001B680A435A6007E07B681B685A687B683C
:102820001B6822F400625A607B681B68DA6A7B6866
:102830001B6822F47002DA627B681B68D96A7B68C5
:10284000DB69013B1A057B681B680A43DA627B6817
:102850001B689A687B681B6822F400729A607B6828
:102860001B6899687B6893F830305A027B681B6854
:102870000A439A607B681B689A687B681B6822F42D
:1028800080629A607B681B6899687B685B699A02C2
:102890007B681B680A439A6000BF1437BD465DF829
:1028A000047B7047002301400100000F80B584B015
:1028B00000AF78607B689B6BFB60FB681B6C03F070
:1028C0005003002B3CD1FB681B6C43F40072FB6887
:1028D0001A64FB681B689B6803F04053002B2BD1E4
:1028E000FB681B7E002B27D1FB681B68DB6A03F4A7
:1028F0007003002B06D0FB681B689B6803F48063A1
:10290000002B19D1FB681B685A68FB681B6822F012
:1029100020025A60FB681B6C23F48072FB681A6407
:10292000FB681B6C03F48053002B05D1FB681B6C08
:1029300043F00102FB681A64F868FFF76BFD0EE0D4
:10294000FB681B6C03F01003002B03D0F868FFF743
:1029500075FD04E0FB689B6BDB6C7868984700BFF3
:102960001037BD4680BD80B584B000AF78607B680D
:102970009B6BFB60F868FFF757FD00BF1037BD4643
:1029800080BD80B584B000AF78607B689B6BFB60D6
:10299000FB6840221A64FB685B6C43F00402FB682E
:1029A0005A64F868FFF74AFD00BF1037BD4680BD86
:1029B00080B485B000AF78607B6803F00703FB60EC
:1029C0000C4BDB68BB60BA684FF6FF031340BB607B
:1029D000FB681A02BB68134343F0BF6343F4003340
:1029E000BB60044ABB68D36000BF1437BD465DF8C6
:1029F000047B704700ED00E080B400AF044BDB685F
:102A00001B0A03F007031846BD465DF8047B7047B8
:102A100000ED00E080B483B000AF03463960FB7185
:102A200097F90730002B0ADB3B68DAB20C4997F9BB
:102A300007301201D2B20B4483F800230AE03B684E
:102A4000DAB20849FB7903F00F03043B1201D2B25A
:102A50000B441A7600BF0C37BD465DF8047B704707
:102A600000E100E000ED00E080B489B000AFF86064
:102A7000B9607A60FB6803F00703FB61FB69C3F18F
:102A80000703042B28BF0423BB61FB690433062B17
:102A900002D9FB69033B00E000237B614FF0FF326A
:102AA000BB6902FA03F3DA43BB681A407B699A40B8
:102AB0004FF0FF317B6901FA03F3D9437B680B4088
:102AC000134318462437BD465DF8047B7047000069
:102AD00080B582B000AF78607B68013BB3F1807F46
:102AE00001D301230FE00A4A7B68013B53600F21A9
:102AF0004FF0FF30FFF78EFF054B00229A60044B2A
:102B000007221A60002318460837BD4680BD00BF63
:102B100010E000E080B582B000AF78607868FFF721
:102B200047FF00BF0837BD4680BD80B586B000AF07
:102B30000346B9607A60FB7300237B61FFF75CFF9B
:102B400078617A68B9687869FFF78EFF024697F96D
:102B50000F3011461846FFF75DFF00BF1837BD461E
:102B600080BD80B582B000AF78607868FFF7B0FFB5
:102B7000034618460837BD4680BD000080B586B0C4
:102B800000AF786000237B61FFF7BCFA38617B6897
:102B9000002B01D1012399E07B68022283F83520C4
:102BA0007B68002283F834207B681B681A687B6886
:102BB0001B6822F001021A600FE0FFF7A3FA024639
:102BC0003B69D31A052B08D97B6820225A657B689C
:102BD000032283F83520032378E07B681B681B6899
:102BE00003F00103002BE8D17B681B681B687B6145
:102BF0007A69384B13407B617B685A687B689B68B5
:102C00001A437B68DB681A437B681B691A437B683D
:102C10005B691A437B689B691A437B68DB691A43CB
:102C20007B681B6A13437A6913437B617B685B6A29
:102C3000042B07D17B68DA6A7B681B6B13437A69C4
:102C400013437B617B681B687A691A607B681B6829
:102C50005B697B617B6923F007037B617B685B6A4F
:102C60007A6913437B617B685B6A042B17D17B68AD
:102C70009B6A7A6913437B617B68DB6A002B0ED009
:102C8000786800F0E5F80346002B08D07B68402206
:102C90005A657B68012283F83520012316E07B68A2
:102CA0001B687A695A61786800F09CF80346FB60FB
:102CB0007B68DB6D3F229A40FB689A607B6800224C
:102CC0005A657B68012283F835200023184618379F
:102CD000BD4680BD3F8010F080B586B000AFF86083
:102CE000B9607A603B600023FB75FB689B6D3B61BC
:102CF000FB6893F83430012B01D1022340E0FB68DC
:102D0000012283F83420FB6893F83530DBB2012BC5
:102D10002FD1FB68022283F83520FB6800225A6518
:102D20003B687A68B968F86800F02EF8FB68DB6DDC
:102D30003F229A403B699A60FB681B681A68FB68EF
:102D40001B6842F016021A60FB681B6C002B07D050
:102D5000FB681B681A68FB681B6842F008021A606F
:102D6000FB681B681A68FB681B6842F001021A6066
:102D700005E0FB68002283F834200223FB75FB7D0D
:102D800018461837BD4680BD80B485B000AFF860E6
:102D9000B9607A603B60FB681B681A68FB681B6857
:102DA00022F480221A60FB681B683A685A60FB684C
:102DB0009B68402B08D1FB681B687A689A60FB68A7
:102DC0001B68BA68DA6007E0FB681B68BA689A603B
:102DD000FB681B687A68DA6000BF1437BD465DF88F
:102DE000047B704780B485B000AF78607B681B6857
:102DF000DBB2103B144AA2FB03231B09FB60134AFE
:102E0000FB6813441B781A467B68DA65FB68032B62
:102E100009D97B681B6823F47F7323F003031A1D11
:102E20007B689A6507E07B681B6823F47F7323F057
:102E300003037A6893657B689B6D18461437BD461B
:102E40005DF8047B704700BFABAAAAAA8887000878
:102E500080B485B000AF78600023FB737B689B6A09
:102E6000BB607B689B69002B1FD1BB68032B56D8C6
:102E700001A252F823F000BF892E00089B2E000803
:102E8000892E00081F2F00087B68DB6A03F080731F
:102E9000002B46D00123FB7343E07B68DB6AB3F170
:102EA000C07F40D10123FB733DE07B689B69B3F594
:102EB000005F21D1BB68032B37D801A252F823F061
:102EC000D12E0008D72E0008D12E0008E92E0008C8
:102ED0000123FB7330E07B68DB6A03F08073002B17
:102EE00025D00123FB7322E07B68DB6AB3F1C07F4E
:102EF0001FD10123FB731CE0BB68022B03D9BB6805
:102F0000032B03D018E00123FB7315E07B68DB6A19
:102F100003F08073002B0ED00123FB730BE000BF86
:102F20000AE000BF08E000BF06E000BF04E000BF09
:102F300002E000BF00E000BFFB7B18461437BD462F
:102F40005DF8047B704700BF80B584B000AF786047
:102F50007B68002B01D101238AE07B68D3F88430A1
:102F6000002B06D17B682022C3F884207868FEF706
:102F700029FD0023BB60404B5B6C3F4A43F4804318
:102F800053643D4B5B6C03F48043BB60BB683B4BBD
:102F90005B683A4A23F400035360384B5A687B68F5
:102FA0009B68364913434B60344B5B687B681B68F6
:102FB00003F580531B687A68126843F0010302F539
:102FC00080521360FFF79EF8F86011E0FFF79AF85F
:102FD0000246FB68D31AB3F5FA7F09D97B6804224D
:102FE000C3F888207B68E022C3F8842001233FE0F7
:102FF0007B681B6803F580531B6803F00103002BFB
:10300000E4D1786800F07AF9786800F025FA7868F9
:1030100000F07BFA7B685B681A460021786800F054
:10302000E3F97B681B68DA6B7B681B6842F4027209
:10303000DA637B681B68D3F80C317A68126843F452
:10304000003343F06003C2F80C317B681B68D3F88F
:1030500010217B681B6842F40312C3F810217B68BF
:103060000022C3F888207B681022C3F88420002344
:1030700018461037BD4680BD003802400038014078
:1030800080B584B000AF786039607B681B681B68CE
:10309000FB60FA68534B1340FB603B689B7B5B060D
:1030A0003A68127C002A02D14FF4000200E00022AC
:1030B00013433A68527C002A02D14FF4800200E0A8
:1030C00000221A433B689B681A433B68DB7F1B0462
:1030D0001A433B685B6913433A68927F002A02D126
:1030E0004FF4005200E000221A433B681B7F1B0391
:1030F0001A433B689B691A433B681B799B02134345
:103100003A6892F82020002A02D14FF4007200E0C1
:1031100000221A433B68DB7BDB011A433B685B6A96
:103120001A433B6893F828301B011343FA68134392
:10313000FB607B681B68FA681A607B681B681B6809
:10314000FB600120FEF7EAFF7B681B68FA681A60E3
:103150007B681B689B69FB60FA684FF641731340FC
:10316000FB603B689B6C1B043A6892F84C20002A79
:1031700001D1802200E000221A433B681B6D1343FB
:103180003A6892F85520012A01D1082200E0002275
:1031900013433A6892F85620012A01D1042200E034
:1031A000002213433A6892F85420012A01D10222E6
:1031B00000E000221343FA681343FB607B681B683E
:1031C000FA689A617B681B689B69FB600120FEF7C7
:1031D000A5FF7B681B68FA689A6100BF1037BD467F
:1031E00080BD00BF0F8120FD80B584B000AF786046
:1031F00039607B681B6803F580539B69FB60FA6844
:103200003D4B1340FB603B681B7B002B02D14FF012
:10321000806200E000223B685B7B5B0613433A68F8
:10322000527F002A02D14FF4801200E000221A439C
:103230003B689B7B5B051A433B685B691A433B68B1
:103240001B7FDB011A433B689B7F9B011A433B6852
:103250001B6A1A433B6893F824309B001343FA68B7
:103260001343FB607B681B6803F580531A46FB68B9
:1032700093617B681B6803F580539B69FB600120A9
:10328000FEF74CFF7B681B6803F580531A46FB680A
:1032900093613B681B795A063B689B681A433B68FD
:1032A0009B691A433B681B691A433B6893F82530B6
:1032B000DB011A433B689B6A9B001A433B681B680F
:1032C00013437A68126843F4000302F580521360D6
:1032D0007B681B6803F580531B68FB600120FEF7C9
:1032E0001DFF7B681B6803F580531A46FB6813605B
:1032F00000BF1037BD4680BD233FDEF880B5A6B0C5
:1033000000AF7860012387F84430012387F8453007
:103310000023FB63002387F85330012387F85230E2
:10332000002387F85030012387F84230012387F8C3
:103330003830002387F85430002387F843300023C7
:10334000BB65002387F85C300023FB67002387F808
:1033500080300023C7F88430002387F88A300023A8
:1033600087F888304FF48043BB644FF40063FB64FC
:10337000002387F8893007F1340319467868FFF78E
:103380007FFE01233B7501237B75012387F82530E0
:103390000123BB750023FB61002387F82430002341
:1033A00087F826300023BB62012387F82C300123E5
:1033B0003B734FF480333B614FF480033B624FF427
:1033C0000053BB61012387F82D3000233B630023AA
:1033D000BB6007F1080319467868FFF705FF00BFD7
:1033E0009837BD4680BD000080B487B000AFF8605C
:1033F000B9607A607B6805331B781B027A680432F7
:10340000127813437B61BA68114B13441A467B69E7
:1034100013607B6803331B781A067B6802331B78C2
:103420001B041A437B6801331B781B0213437A6821
:10343000127813437B61BA68064B13441A467B69C2
:10344000136000BF1C37BD465DF8047B704700BFAA
:10345000408002404480024080B485B000AF786074
:103460000023FB603EE07B68D968FA6813469B0046
:103470001344DB000B44BB60BB6800221A60BB68CE
:1034800000225A60BB6800229A60BB680022DA60A2
:10349000B9687B68FA68063243F82210BB681B687B
:1034A00043F48012BB681A60FB68022B0CD87B685F
:1034B000D968FB685A1C13469B001344DB000B447D
:1034C0001A46BB68DA6004E07B68DB681A46BB68B2
:1034D000DA60BB681B6843F44002BB681A60FB6893
:1034E0000133FB60FB68032BBDD97B6800229A6225
:1034F0007B68DA687B681B6803F580531A6100BF3C
:103500001437BD465DF8047B704780B485B000AFCA
:1035100078600023FB6048E07B681969FA6813460D
:103520009B001344DB000B44BB60BB6800221A60A5
:10353000BB6800225A60BB6800229A60BB68002208
:10354000DA60BB6800221A62BB6800225A62BB685C
:103550004FF000421A607B685B6943F48042BB68AD
:103560005A60BB685B6823F00042BB685A60B96868
:103570007B68FA68123243F82210FB68022B0CD8E1
:103580007B681969FB685A1C13469B001344DB00D7
:103590000B441A46BB68DA6004E07B681B691A4674
:1035A000BB68DA60FB680133FB60FB68032BB3D9AF
:1035B0007B680022DA657B6800221A667B6800223D
:1035C0009A667B680022DA667B6800229A657B68CF
:1035D0001A697B681B6803F58053DA6000BF1437F3
:1035E000BD465DF8047B704780B489B000AF786059
:1035F000396000237B6100233B610023BB61002312
:10360000FB6177E10122FB6902FA03F37B613B680E
:103610001B687A6913403B613A697B699A4240F0C2
:1036200066813B685B6803F00303012B05D03B68B0
:103630005B6803F00303022B30D17B689B68BB619E
:10364000FB695B00032202FA03F3DB43BA69134010
:10365000BB613B68DA68FB695B0002FA03F3BA6995
:103660001343BB617B68BA699A607B685B68BB6126
:103670000122FB6902FA03F3DB43BA691340BB6121
:103680003B685B681B0903F00102FB6902FA03F364
:10369000BA691343BB617B68BA695A603B685B686F
:1036A00003F00303032B17D07B68DB68BB61FB6966
:1036B0005B00032202FA03F3DB43BA691340BB61E8
:1036C0003B689A68FB695B0002FA03F3BA6913432B
:1036D000BB617B68BA69DA603B685B6803F003032F
:1036E000022B23D1FB69DA087B68083253F82230B9
:1036F000BB61FB6903F007039B000F2202FA03F38F
:10370000DB43BA691340BB613B681A69FB6903F08C
:1037100007039B0002FA03F3BA691343BB61FB6919
:10372000DA087B680832B96943F822107B681B68A5
:10373000BB61FB695B00032202FA03F3DB43BA6956
:103740001340BB613B685B6803F00302FB695B00ED
:1037500002FA03F3BA691343BB617B68BA691A6062
:103760003B685B6803F44033002B00F0C08000230B
:10377000FB60664B5B6C654A43F480435364634B68
:103780005B6C03F48043FB60FB68614AFB699B0848
:10379000023352F82330BB61FB6903F003039B0043
:1037A0000F2202FA03F3DB43BA691340BB617B6863
:1037B000584A934237D07B68574A934231D07B684E
:1037C000564A93422BD07B68554A934225D07B685A
:1037D000544A93421FD07B68534A934219D07B6866
:1037E000524A934213D07B68514A93420DD07B6872
:1037F000504A934207D07B684F4A934201D1092334
:1038000012E00A2310E008230EE007230CE0062351
:103810000AE0052308E0042306E0032304E0022372
:1038200002E0012300E00023FA6902F003029200A3
:103830009340BA691343BB613549FB699B08023366
:10384000BA6941F823203D4B9B68BB613B69DB4370
:10385000BA691340BB613B685B6803F48013002BBB
:1038600003D0BA693B691343BB61344ABB699360B7
:10387000324BDB68BB613B69DB43BA691340BB6118
:103880003B685B6803F40013002B03D0BA693B6903
:103890001343BB61294ABB69D360284B5B68BB619A
:1038A0003B69DB43BA691340BB613B685B6803F467
:1038B0000033002B03D0BA693B691343BB611F4A35
:1038C000BB6953601D4B1B68BB613B69DB43BA6935
:1038D0001340BB613B685B6803F48033002B03D06B
:1038E000BA693B691343BB61144ABB691360FB6946
:1038F0000133FB61FB690F2B7FF684AE00BF00BF75
:103900002437BD465DF8047B704700BF0038024095
:10391000003801400000024000040240000802405C
:10392000000C024000100240001402400018024047
:10393000001C02400020024000240240003C0140E4
:1039400080B483B000AF78600B467B8013467B70F9
:103950007B78002B03D07A887B689A6103E07B88B0
:103960001A047B689A6100BF0C37BD465DF8047B82
:103970007047000080B584B000AF78607B68002B92
:1039800001D101232BE17B6893F83D30DBB2002BA2
:1039900006D17B68002283F83C207868FEF7D8F8CF
:1039A0007B68242283F83D207B681B681A687B684B
:1039B0001B6822F001021A607B681B681A687B682A
:1039C0001B6842F400421A607B681B681A687B68B7
:1039D0001B6822F400421A6001F064FAF8607B6808
:1039E0005B68814A934207D8FB68804A934294BF40
:1039F00001230023DBB206E0FB687D4A934294BFBB
:103A000001230023DBB2002B01D00123E7E0FB6898
:103A1000784AA2FB03239B0CBB607B681B685B6836
:103A200023F03F017B681B68BA680A435A607B68D1
:103A30001B681B6A23F03F017B685B686A4A9342FC
:103A400002D8BB68013309E0BB684FF4967202FBF1
:103A500003F3694AA2FB03239B0901337A681268C6
:103A60000B4313627B681B68DB6923F44F4222F02F
:103A7000FF027B685B685C498B4219D8FB68591E62
:103A80007B685B685B00B1FBF3F3591C40F6FC7389
:103A90000B40002B0AD0FB68591E7B685B685B00FB
:103AA000B1FBF3F30133C3F30B0351E004234FE005
:103AB0007B689B68002B11D1FB68581E7B68596896
:103AC0000B465B000B44B0FBF3F30133C3F30B0372
:103AD000002B0CBF01230023DBB212E0FB68581E51
:103AE0007B6859680B469B000B4499000B44B0FB64
:103AF000F3F30133C3F30B03002B0CBF01230023AB
:103B0000DBB2002B01D0012322E07B689B68002BF5
:103B10000ED1FB68581E7B6859680B465B000B444E
:103B2000B0FBF3F30133C3F30B0343F400430FE0A3
:103B3000FB68581E7B6859680B469B000B44990034
:103B40000B44B0FBF3F30133C3F30B0343F44043E3
:103B5000796809681343CB617B681B681B6823F095
:103B6000C0017B68DA697B681B6A1A437B681B6843
:103B70000A431A607B681B689B6823F4034323F0A5
:103B8000FF037A6811697A68D26811437A6812680B
:103B90000B4393607B681B68DB6823F0FF017B6845
:103BA0005A697B689B691A437B681B680A43DA6021
:103BB0007B681B681A687B681B6842F001021A6008
:103BC0007B6800221A647B68202283F83D207B6892
:103BD00000221A637B68002283F83E2000231846E7
:103BE0001037BD4680BD00BFA08601007F841E0047
:103BF000FF083D0083DE1B43D34D621080B588B0C3
:103C000002AFF8607A601A460B467B8113463B810F
:103C1000FEF778FA7861FB6893F83D30DBB2202B31
:103C200040F0E0807B690093192301227049F86815
:103C300000F064F90346002B01D00223D3E0FB68B7
:103C400093F83C30012B01D10223CCE0FB68012228
:103C500083F83C20FB681B681B6803F00103012B01
:103C600007D0FB681B681A68FB681B6842F00102FA
:103C70001A60FB681B681A68FB681B6822F4006204
:103C80001A60FB68212283F83D20FB68102283F82C
:103C90003E20FB6800221A64FB687A685A62FB685F
:103CA0003A895A85FB685B8D9AB2FB681A85FB6876
:103CB000504ADA6279897B693A6AF86800F09CF8C0
:103CC0000346002B01D001238DE000233B61FB68FC
:103CD0001B685B693B61FB681B689B693B613B69D7
:103CE00066E07A69396AF86800F022FA0346002B28
:103CF0000DD0FB681B6C042B07D1FB681B681A688E
:103D0000FB681B6842F400721A6001236BE0FB68D9
:103D10005B6A1A78FB681B681A61FB685B6A5A1C4D
:103D2000FB685A62FB685B8D9BB2013B9AB2FB68F1
:103D30005A85FB681B8D013B9AB2FB681A85FB68AC
:103D40001B685B6903F00403042B1BD1FB681B8D0C
:103D5000002B17D0FB685B6A1A78FB681B681A6136
:103D6000FB685B6A5A1CFB685A62FB685B8D9BB2FE
:103D7000013B9AB2FB685A85FB681B8D013B9AB2E6
:103D8000FB681A857A69396AF86800F019FA0346FF
:103D9000002B0DD0FB681B6C042B07D1FB681B6844
:103DA0001A68FB681B6842F400721A6001231AE06B
:103DB000FB681B8D002B94D1FB681B681A68FB689D
:103DC0001B6842F400721A60FB68202283F83D20D1
:103DD000FB68002283F83E20FB68002283F83C2029
:103DE000002300E0022318461837BD4680BD00BFFF
:103DF000020010000000FFFF80B588B002AFF8603D
:103E00007A603B600B467B81FB68DB6A7B617B6988
:103E1000082B06D07B69012B03D07B6913F5803F0B
:103E200008D1FB681B681A68FB681B6842F4807243
:103E30001A600BE0FB681B6B122B07D1FB681B6839
:103E40001A68FB681B6842F480721A603B68009332
:103E50007B6800224FF00111F86800F04FF803462C
:103E6000002B0DD0FB681B681B6803F48073B3F54F
:103E7000807F03D1FB684FF400721A64032335E09E
:103E8000FB681B69B3F5804F08D17B89DBB21A460A
:103E9000FB681B6802F0FE021A611BE07B89DB11E4
:103EA000DBB203F00603DBB263F00F03DAB2FB68A8
:103EB0001B681A613B687A680E49F86800F098F848
:103EC0000346002B01D0012310E07B89DAB2FB68A6
:103ED0001B681A613B687A680749F86800F088F83F
:103EE0000346002B01D0012300E0002318461837B9
:103EF000BD4680BD080001000200010080B584B00D
:103F000000AFF860B9603B601346FB7148E03B6866
:103F1000B3F1FF3F44D0FEF7F5F80246BB69D31A70
:103F20003A689A4202D33B68002B39D1BB681B0C1C
:103F3000DBB2012B0DD1FB681B685B69DA43BB6800
:103F400013409BB2002B0CBF01230023DBB21A46A7
:103F50000CE0FB681B689B69DA43BB6813409BB2AB
:103F6000002B0CBF01230023DBB21A46FB799A42D7
:103F700016D1FB6800221A63FB68202283F83D20DB
:103F8000FB68002283F83E20FB681B6C43F0200294
:103F9000FB681A64FB68002283F83C20012323E0BD
:103FA000BB681B0CDBB2012B0DD1FB681B685B6986
:103FB000DA43BB6813409BB2002B0CBF01230023E4
:103FC000DBB21A460CE0FB681B689B69DA43BB68EE
:103FD00013409BB2002B0CBF01230023DBB21A4617
:103FE000FB799A4293D0002318461037BD4680BD16
:103FF00080B584B000AFF860B9607A603B6071E072
:10400000FB681B685B6903F48063B3F5806F23D1A1
:10401000FB681B681A68FB681B6842F400721A6030
:10402000FB681B686FF480625A61FB6800221A63A8
:10403000FB68202283F83D20FB68002283F83E20A5
:10404000FB681B6C43F00402FB681A64FB680022E7
:1040500083F83C20012367E07B68B3F1FF3F41D048
:10406000FEF750F802463B68D31A7A689A4202D3A8
:104070007B68002B36D1BB681B0CDBB2012B0CD14B
:10408000FB681B685B69DA43BB6813409BB2002B7B
:1040900014BF01230023DBB20BE0FB681B689B69A4
:1040A000DA43BB6813409BB2002B14BF01230023EB
:1040B000DBB2002B16D0FB6800221A63FB682022BB
:1040C00083F83D20FB68002283F83E20FB681B6CD0
:1040D00043F02002FB681A64FB68002283F83C204E
:1040E000012321E0BB681B0CDBB2012B0CD1FB6868
:1040F0001B685B69DA43BB6813409BB2002B14BF9B
:1041000001230023DBB20BE0FB681B689B69DA43E9
:10411000BB6813409BB2002B14BF01230023DBB20A
:10412000002B7FF46DAF002318461037BD4680BDCD
:1041300080B584B000AFF860B9607A6034E0F868A8
:1041400000F086F80346002B01D0012334E0BB6861
:10415000B3F1FF3F28D0FDF7D5FF02467B68D31AA5
:10416000BA689A4202D3BB68002B1DD1FB681B685A
:104170005B6903F08003802B16D0FB6800221A6372
:10418000FB68202283F83D20FB68002283F83E2054
:10419000FB681B6C43F02002FB681A64FB6800227A
:1041A00083F83C20012307E0FB681B685B6903F090
:1041B0008003802BC3D1002318461037BD4680BD35
:1041C00080B584B000AFF860B9607A6034E0F86818
:1041D00000F03EF80346002B01D0012334E0BB6819
:1041E000B3F1FF3F28D0FDF78DFF02467B68D31A5D
:1041F000BA689A4202D3BB68002B1DD1FB681B68CA
:104200005B6903F00403042B16D0FB6800221A63D9
:10421000FB68202283F83D20FB68002283F83E20C3
:10422000FB681B6C43F02002FB681A64FB680022E9
:1042300083F83C20012307E0FB681B685B6903F0FF
:104240000403042BC3D1002318461037BD4680BD9C
:1042500080B483B000AF78607B681B685B6903F44F
:104260008063B3F5806F1BD17B681B686FF480623D
:104270005A617B6800221A637B68202283F83D2004
:104280007B68002283F83E207B681B6C43F00402AD
:104290007B681A647B68002283F83C20012300E0DD
:1042A000002318460C37BD465DF8047B704780B488
:1042B00083B000AF786039607B6893F83D30DBB243
:1042C000202B29D17B68242283F83D207B681B6842
:1042D0001A687B681B6822F001021A607B681B6801
:1042E0005A6A7B681B6822F010025A627B681B685E
:1042F000596A7B681B683A680A435A627B681B6884
:104300001A687B681B6842F001021A607B682022F1
:1043100083F83D20002300E0022318460C37BD46F9
:104320005DF8047B704780B485B000AF7860396079
:104330000023FB817B6893F83D30DBB2202B2AD130
:104340007B68242283F83D207B681B681A687B68A1
:104350001B6822F001021A607B681B685B6AFB81A4
:10436000FB8923F00F03FB813B689AB2FB8913435F
:10437000FB817B681B68FA895A627B681B681A6834
:104380007B681B6842F001021A607B68202283F878
:104390003D20002300E0022318461437BD465DF897
:1043A000047B704780B586B002AF78607B68002BD5
:1043B00001D1012301E17B681B68BB607B6893F836
:1043C0009534DBB2002B06D17B68002283F894245D
:1043D0007868FDF7A5FC7B68032283F89524BB6809
:1043E000B3F1A04F02D17B6800229A717B681B68F1
:1043F000184601F0A7F87B6818687B681A7C8DF86E
:10440000002004330ECB01F039F80346002B05D011
:104410007B68022283F895240123CEE07B681B6829
:104420000021184601F09FF80346002B05D07B6859
:10443000022283F895240123BFE00023FB734AE0A6
:10444000FA7B79681346DB0013449B000B44153359
:1044500001221A70FA7B79681346DB0013449B0033
:104460000B441433FA7B1A70FA7BFB7B98B27968A1
:104470001346DB0013449B000B442E3302461A8084
:10448000FA7B79681346DB0013449B000B44183316
:1044900000221A70FA7B79681346DB0013449B00F4
:1044A0000B441C3300221A60FA7B79681346DB0048
:1044B00013449B000B44203300221A60FA7B796876
:1044C0001346DB0013449B000B44243300221A6084
:1044D000FB7B0133FB737B681B79FA7B9A42AFD37A
:1044E0000023FB7344E0FA7B79681346DB00134436
:1044F0009B000B4403F2552300221A70FA7B796863
:104500001346DB0013449B000B4403F51573FA7B41
:104510001A70FA7B79681346DB0013449B000B4446
:1045200003F5167300221A70FA7B79681346DB00D4
:1045300013449B000B4403F5177300221A60FA7BA7
:1045400079681346DB0013449B000B4403F5187392
:1045500000221A60FA7B79681346DB0013449B0043
:104560000B4403F5197300221A60FB7B0133FB73C4
:104570007B681B79FA7B9A42B5D37B6818687B68A5
:104580001A7C8DF8002004330ECB01F039F8034675
:10459000002B05D07B68022283F8952401230CE0D0
:1045A0007B6800225A747B68012283F895247B681B
:1045B0001B68184601F001FA002318461037BD4663
:1045C00080BD000080B586B000AF78607B68002BAE
:1045D00001D1012367E27B681B6803F00103002B14
:1045E00075D0884B9B6803F00C03042B0CD0854BD3
:1045F0009B6803F00C03082B12D1824B5B6803F419
:104600008003B3F5800F0BD17E4B1B6803F400339E
:10461000002B5BD07B685B68002B57D1012342E203
:104620007B685B68B3F5803F06D1764B1B68754AA3
:1046300043F4803313601DE07B685B68B3F5A02F03
:104640000CD1704B1B686F4A43F4802313606D4B91
:104650001B686C4A43F4803313600BE0694B1B68A2
:10466000684A23F480331360664B1B68654A23F461
:10467000802313607B685B68002B13D0FDF742FD3D
:10468000386108E0FDF73EFD02463B69D31A642B12
:1046900001D9032307E25B4B1B6803F40033002BB3
:1046A000F0D014E0FDF72EFD386108E0FDF72AFD9B
:1046B00002463B69D31A642B01D90323F3E1514B22
:1046C0001B6803F40033002BF0D100E000BF7B68CF
:1046D0001B6803F00203002B63D04A4B9B6803F076
:1046E0000C03002B0BD0474B9B6803F00C03082BEB
:1046F0001CD1444B5B6803F48003002B16D1414B63
:104700001B6803F00203002B05D07B68DB68012BDC
:1047100001D00123C7E13B4B1B6823F0F8027B6803
:104720001B69DB00374913430B603AE07B68DB68A9
:10473000002B20D0344B01221A60FDF7E3FC3861D6
:1047400008E0FDF7DFFC02463B69D31A022B01D9D2
:104750000323A8E12B4B1B6803F00203002BF0D0CE
:10476000284B1B6823F0F8027B681B69DB00254996
:1047700013430B6015E0244B00221A60FDF7C2FCC6
:10478000386108E0FDF7BEFC02463B69D31A022BF4
:1047900001D9032387E11B4B1B6803F00203002BA5
:1047A000F0D17B681B6803F00803002B36D07B68D0
:1047B0005B69002B16D0154B01221A60FDF7A2FC95
:1047C000386108E0FDF79EFC02463B69D31A022BD4
:1047D00001D9032367E10B4B5B6F03F00203002B4E
:1047E000F0D01BE0094B00221A60FDF78BFC38610A
:1047F0000EE0FDF787FC02463B69D31A022B07D96E
:10480000032350E10038024000004742800E474237
:10481000884B5B6F03F00203002BEAD17B681B68B7
:1048200003F00403002B00F097800023FB75814BFD
:104830001B6C03F08053002B0FD10023BB607D4B1A
:104840001B6C7C4A43F0805313647A4B1B6C03F05F
:104850008053BB60BB680123FB75774B1B6803F477
:104860008073002B18D1744B1B68734A43F4807318
:104870001360FDF747FC386108E0FDF743FC024692
:104880003B69D31A022B01D903230CE16A4B1B6845
:1048900003F48073002BF0D07B689B68012B06D15A
:1048A000644B1B6F634A43F0010313671CE07B6892
:1048B0009B68052B0CD15F4B1B6F5E4A43F00403D2
:1048C00013675C4B1B6F5B4A43F0010313670BE0FC
:1048D000584B1B6F574A23F001031367554B1B6F4F
:1048E000544A23F0040313677B689B68002B15D0A0
:1048F000FDF708FC38610AE0FDF704FC02463B695D
:10490000D31A41F28832934201D90323CBE0494BB9
:104910001B6F03F00203002BEED014E0FDF7F2FB57
:1049200038610AE0FDF7EEFB02463B69D31A41F21B
:104930008832934201D90323B5E03E4B1B6F03F04D
:104940000203002BEED1FB7D012B05D1394B1B6CF3
:10495000384A23F0805313647B689B69002B00F076
:10496000A180344B9B6803F00C03082B5CD07B6860
:104970009B69022B41D1314B00221A60FDF7C2FB2B
:10498000386108E0FDF7BEFB02463B69D31A022BF3
:1049900001D9032387E0274B1B6803F00073002B2A
:1049A000F0D17B68DA697B681B6A1A437B685B6AB3
:1049B0009B011A437B689B6A5B08013B1B041A43FB
:1049C0007B68DB6A1B061B4913434B601B4B0122B0
:1049D0001A60FDF797FB386108E0FDF793FB02468C
:1049E0003B69D31A022B01D903235CE0114B1B68EE
:1049F00003F00073002BF0D054E0104B00221A603B
:104A0000FDF780FB386108E0FDF77CFB02463B695F
:104A1000D31A022B01D9032345E0064B1B6803F090
:104A20000073002BF0D13DE07B689B69012B07D11F
:104A3000012338E000380240007000406000474227
:104A40001B4B5B68FB607B689B69012B28D0FB6874
:104A500003F480027B68DB699A4221D1FB6803F092
:104A60003F027B681B6A9A421AD1FA6847F6C07304
:104A700013407A68526A9201934211D1FB6803F4A1
:104A800040327B689B6A5B08013B1B049A4207D15A
:104A9000FB6803F070627B68DB6A1B069A4201D0F8
:104AA000012300E0002318461837BD4680BD00BF33
:104AB0000038024080B584B000AF786039607B6810
:104AC000002B01D10123CCE0684B1B6803F00F03DE
:104AD0003A689A420CD9654B3A68D2B21A70634B65
:104AE0001B6803F00F033A689A4201D00123B8E033
:104AF0007B681B6803F00203002B20D07B681B68D7
:104B000003F00403002B05D0594B9B68584A43F42B
:104B1000E05393607B681B6803F00803002B05D00B
:104B2000534B9B68524A43F460439360504B9B68DD
:104B300023F0F0027B689B684D4913438B607B68D0
:104B40001B6803F00103002B44D07B685B68012BDA
:104B500007D1474B1B6803F40033002B19D1012305
:104B60007FE07B685B68022B03D07B685B68032B6C
:104B700007D13F4B1B6803F00073002B09D10123C1
:104B80006FE03B4B1B6803F00203002B01D10123B4
:104B900067E0374B9B6823F003027B685B6834490E
:104BA00013438B60FDF7AEFAF8600AE0FDF7AAFA4E
:104BB0000246FB68D31A41F28832934201D903239B
:104BC0004FE02B4B9B6803F00C027B685B689B00FB
:104BD0009A42EBD1254B1B6803F00F033A689A42C7
:104BE0000CD2224B3A68D2B21A70204B1B6803F0E9
:104BF0000F033A689A4201D0012332E07B681B68B8
:104C000003F00403002B08D0194B9B6823F4E052F7
:104C10007B68DB68164913438B607B681B6803F075
:104C20000803002B09D0124B9B6823F460427B6879
:104C30001B69DB000E4913438B6000F021F802462C
:104C40000B4B9B681B0903F00F030A49CB5C22FA4C
:104C500003F3094A1360094B1B681846FDF70EFA67
:104C6000002318461037BD4680BD00BF003C0240FF
:104C7000003802407087000804000020080000206F
:104C80002DE9B04F94B000AF00237B640023FB6498
:104C900000233B640023BB64794B9B6803F00C0347
:104CA000082B0DD0082B00F2E180002B02D0042B42
:104CB00003D0DBE0734BBB64DBE0734BBB64D8E039
:104CC0006F4B5B6803F03F037B646D4B5B6803F4E1
:104CD0008003002B63D06A4B5B689B090022BB6397
:104CE000FA63BB6BC3F308033B6300237B63D7E921
:104CF0000C4522462B464FF000004FF000015901B1
:104D000041EAD261500102460B462146511A3961EF
:104D1000294663EB01037B614FF000024FF0000373
:104D2000D7E904AB59468B01514643EA916351469A
:104D30008A015146B2EB0108594663EB01094FF075
:104D400000024FF000034FEAC90343EA58734FEAE9
:104D5000C80290469946234618EB0303BB602B46D6
:104D600049EB0303FB604FF000024FF00003D7E96B
:104D7000024529464B02214643EAD15321464A02C5
:104D8000104619467B6C0022BB62FA62D7E90A23FF
:104D9000FBF76AFF02460B461346FB6458E0384BAC
:104DA0005B689B09002218461146C0F308033B626A
:104DB00000237B62D7E9088942464B464FF000004A
:104DC0004FF00001590141EAD261500102460B4601
:104DD0004146B2EB010A494663EB010B4FF000027A
:104DE0004FF000034FEA8B1343EA9A634FEA8A12AB
:104DF000B2EB0A0463EB0B054FF000024FF0000327
:104E0000EB0043EA5473E20014461D464346E318A0
:104E10003B604B4645EB03037B604FF000024FF0D5
:104E20000003D7E9004529468B02214643EA915306
:104E300021468A02104619467B6C0022BB61FA614A
:104E4000D7E90623FBF710FF02460B461346FB6427
:104E50000B4B5B681B0C03F0030301335B003B64EB
:104E6000FA6C3B6CB2FBF3F3BB6402E0054BBB6432
:104E700000BFBB6C18465037BD46BDE8B08F00BFC1
:104E8000003802400024F40000127A0080B400AF21
:104E9000034B1B681846BD465DF8047B704700BF96
:104EA0000400002080B500AFFFF7F0FF0246054B7D
:104EB0009B689B0A03F007030349CB5C22FA03F3C8
:104EC000184680BD003802408087000880B500AFDA
:104ED000FFF7DCFF0246054B9B685B0B03F0070303
:104EE0000349CB5C22FA03F3184680BD0038024028
:104EF0008087000880B582B000AF78607B68002BA7
:104F000001D1012342E07B6893F84130DBB2002BF2
:104F100006D17B68002283F840207868FCF760FEA9
:104F20007B68242283F841207B681B68DA687B68F1
:104F30001B6822F40052DA60786800F02BF87B6876
:104F40001B681A697B681B6822F490421A617B68AF
:104F50001B685A697B681B6822F02A025A617B68C9
:104F60001B68DA687B681B6842F40052DA607B6871
:104F700000225A647B68202283F841207B6820222B
:104F800083F842207B6800225A63002318460837C2
:104F9000BD4680BD2DE9B04FC0B000AFC7F8F400EA
:104FA000D7F8F4301B681B6923F44050D7F8F4306D
:104FB000D968D7F8F4301A6840EA01031361D7F8CA
:104FC000F4309A68D7F8F4301B691A43D7F8F430F4
:104FD0005B691A43D7F8F430DB691343C7F8F8303C
:104FE000D7F8F4301B68DB6823F4164121F00C017C
:104FF000D7F8F4301A68D7F8F8300B43D360D7F8F5
:10500000F4301B685B6923F44070D7F8F430996979
:10501000D7F8F4301A6840EA01035361D7F8F43046
:105020001A688F4B9A4205D0D7F8F4301A688D4B26
:105030009A4204D1FFF74AFFC7F8FC0003E0FFF7EC
:1050400031FFC7F8FC00D7F8F430DB69B3F5004F47
:1050500040F00C81D7F8FC300022C7F8E830C7F8E0
:10506000EC20D7E93A4522462B469118B9655B41B9
:10507000FB65D7E91623214612EB0108294643EBCD
:1050800001094FF000024FF000034FEAC90343EA61
:1050900058734FEAC80290469946234618EB03031B
:1050A000C7F8E0302B4649EB0303C7F8E430D7F8E4
:1050B000F4305B680022C7F8D830C7F8DC20D7E9A5
:1050C00036120B46DB183B65134642EB03037B6548
:1050D000D7E91423D7E93801FBF7C6FD02460B4692
:1050E000614BA3FB02235B091C01D7F8FC300022B3
:1050F000C7F8D030C7F8D420D7E9348942464B46A8
:105100009118B9645B41FB64D7E91223414612EB65
:10511000010A494643EB010B4FF000024FF0000338
:105120004FEACB0343EA5A734FEACA0292469B46C0
:1051300043461AEB0303C7F8C8304B464BEB030357
:10514000C7F8CC30D7F8F4305B680022C7F8C0301D
:10515000C7F8C420D7E930120B46DB183B6413466E
:1051600042EB03037B64D7E91023D7E93201FBF755
:105170007BFD02460B4611463B4BA3FB01235B091B
:10518000642202FB03F3CB1ADB0003F13202364B3D
:10519000A3FB02235B095B0003F4F8731C44D7F8FC
:1051A000FC300022C7F8B830C7F8BC20D7E92E89F8
:1051B00042464B469118B9635B41FB63D7E90E2326
:1051C00041465118396349464B417B634FF0000219
:1051D0004FF00003D7E90CAB5946CB00514643EAE8
:1051E00051735146CA0010461946034642469B1861
:1051F000C7F8B0304B460A4642EB0303C7F8B43059
:10520000D7F8F4305B680022C7F8A830C7F8AC20A4
:10521000D7E92A120B46DB18BB62134642EB0303A5
:10522000FB62D7E90A23D7E92C01FBF71DFD0246F3
:105230000B460D4BA3FB02135B09642101FB03F337
:10524000D31ADB003233084AA2FB03235B0903F0C5
:105250000702D7F8F4301B6822449A6006E100BFC9
:1052600000100140001401401F85EB51D7F8FC30BD
:105270000022C7F8A030C7F8A420D7E92889424601
:105280004B46911839625B417B62D7E9082341465E
:105290005418494643EB01054FF000024FF000035C
:1052A000EB0043EA5473E20014461D464346E318FC
:1052B000C7F898304B4645EB0303C7F89C30D7F846
:1052C000F4305B680022C7F89030C7F894204FF0A4
:1052D00000024FF00003D7E9244529468B00214600
:1052E00043EA917321468A00D7E92601FBF7BCFC0B
:1052F00002460B46604BA3FB02235B091C01D7F857
:10530000FC300022C7F88830C7F88C20D7E9228902
:1053100042464B469118B9615B41FB61D7E90623D0
:1053200041465118396149464B417B614FF00002BB
:105330004FF00003D7E904AB5946CB00514643EA8E
:1053400051735146CA0010461946034642469B18FF
:10535000C7F880304B460A4642EB0303C7F8843057
:10536000D7F8F4305B680022BB67FA674FF00002A1
:105370004FF00003D7E91E8949468B00414643EAB6
:10538000917341468A00D7E92001FBF76DFC024684
:105390000B461146384BA3FB01235B09642202FB39
:1053A00003F3CB1A1B013233334AA2FB03235B09FD
:1053B00003F0F0031C44D7F8FC3000223B677A6707
:1053C000D7E91C8942464B469118B9605B41FB60A6
:1053D000D7E9022341465118396049464B417B6069
:1053E0004FF000024FF00003D7E900AB5946CB0065
:1053F000514643EA51735146CA00104619460346C6
:1054000042469B18BB664B460A4642EB0303FB66CB
:10541000D7F8F4305B6800223B667A664FF00002F2
:105420004FF00003D7E9188949468B00414643EA0B
:10543000917341468A00D7E91A01FBF715FC024631
:105440000B460D4BA3FB02135B09642101FB03F325
:10545000D31A1B013233084AA2FB03235B0903F072
:105460000F02D7F8F4301B6822449A6000BF07F59A
:105470008077BD46BDE8B08F1F85EB5184B080B505
:1054800084B000AF786007F11C0080E80E0097F848
:105490002130012B23D17B689B6B23F480327B6806
:1054A0009A637B68DB6823F4840323F040037A6803
:1054B000D3607B68DB6823F440127B68DA6097F87E
:1054C0002830012B05D17B68DB6843F480127B68B0
:1054D000DA60786800F0A0FA0346FB731BE07B6893
:1054E000DB6843F040027B68DA60786800F094FA89
:1054F0000346FB7397F82530002B06D17B689B6B26
:1055000043F480327B689A6305E07B689B6B23F4ED
:1055100080327B689A63BB7F012B0BD17B689B68D1
:1055200043F006027B689A607B689B6843F0200228
:105530007B689A60FB7B18461037BD46BDE880400B
:1055400004B0704780B483B000AF78607B689B681C
:1055500023F001027B689A60002318460C37BD4691
:105560005DF8047B704780B584B000AF78600B466F
:10557000FB700023FB607B68DB6823F0C0427B6824
:10558000DA60FB78012B15D17B68DB6843F00052B1
:105590007B68DA600A20FCF7C1FDFB680A33FB6018
:1055A000786800F02BFA0346012B1ED0FB68C72B4E
:1055B000F0D91AE0FB78002B15D17B68DB6843F04B
:1055C00080427B68DA600A20FCF7A8FDFB680A339A
:1055D000FB60786800F012FA0346002B05D0FB68E8
:1055E000C72BF0D901E0012305E0FB68C82B01D1EE
:1055F000012300E0002318461037BD4680BD00009F
:1056000084B080B586B000AF786007F1240080E8F0
:105610000E000023FB757B68FB6000233B6109E003
:105620007A683B6940339B00134400225A603B690F
:1056300001333B613B690E2BF2D997F82E30002BDA
:105640001CD1FB6803F500635B68FA6802F5006231
:1056500043F0020353607B689B6B43F400127B684A
:105660009A637B689B6B23F400227B689A637B6858
:105670009B6B23F480227B689A630BE07B689B6BB7
:1056800023F400127B689A637B689B6B43F40022CF
:105690007B689A63FB6803F560631A460023136016
:1056A00097F82930012B0DD197F82730002B04D122
:1056B0000021786800F068F908E00121786800F0BE
:1056C00063F903E00321786800F05EF9102178683F
:1056D00000F0FAF80346002B01D00123FB7578682F
:1056E00000F024F90346002B01D00123FB75FB6871
:1056F00003F500631A4600231361FB6803F500639A
:105700001A4600235361FB6803F500631A46002321
:10571000D36100233B6143E03B695A01FB681344BA
:1057200003F510631B6803F00043B3F1004F18D179
:105730003B69002B0AD13B695A01FB68134403F50E
:1057400010631A464FF00063136013E03B695A017F
:10575000FB68134403F510631A464FF0904313603F
:1057600008E03B695A01FB68134403F510631A46CD
:10577000002313603B695A01FB68134403F510636F
:105780001A46002313613B695A01FB68134403F571
:1057900010631A464FF67F3393603B6901333B61D8
:1057A00097F824301A463B699342B5D300233B61F6
:1057B00043E03B695A01FB68134403F530631B68FF
:1057C00003F00043B3F1004F18D13B69002B0AD11D
:1057D0003B695A01FB68134403F530631A464FF0E6
:1057E0000063136013E03B695A01FB68134403F53F
:1057F00030631A464FF09043136008E03B695A014A
:10580000FB68134403F530631A46002313603B69B9
:105810005A01FB68134403F530631A4600231361F1
:105820003B695A01FB68134403F530631A464FF68F
:105830007F3393603B6901333B6197F824301A460C
:105840003B699342B5D3FB6803F500631B69FA68B3
:1058500002F5006223F4807313617B6800229A6171
:105860007B686FF080425A6197F82630002B05D193
:105870007B689B6943F010027B689A617B689A6938
:10588000104B13437A68936197F82A30002B05D0A8
:105890007B689B6943F008027B689A6197F82E3019
:1058A000012B07D17B689B6943F0804343F00403DD
:1058B0007A689361FB7D18461837BD46BDE8804085
:1058C00004B0704700383C8080B485B000AF786089
:1058D00039600023FB60FB680133FB60FB68B3F1B8
:1058E000706F01D903231BE07B681B69002BF2DA80
:1058F0000023FB603B689B0143F020027B681A6138
:10590000FB680133FB60FB68B3F1706F01D90323BF
:1059100006E07B681B6903F02003202BF0D00023F6
:1059200018461437BD465DF8047B704780B485B0D7
:1059300000AF78600023FB60FB680133FB60FB680D
:10594000B3F1706F01D9032318E07B681B69002B4A
:10595000F2DA0023FB607B6810221A61FB680133D6
:10596000FB60FB68B3F1706F01D9032306E07B682D
:105970001B6903F01003102BF0D0002318461437D6
:10598000BD465DF8047B704780B485B000AF786099
:105990000B46FB707B68FB60FB6803F500631A68CD
:1059A000FB78F96801F5006113430B60002318468A
:1059B0001437BD465DF8047B704780B485B000AFF6
:1059C00078607B68FB60FB6803F560631B68FA68BE
:1059D00002F5606223F003031360FB6803F50063C4
:1059E0005B68FA6802F5006243F00203536000232B
:1059F00018461437BD465DF8047B704780B483B009
:105A000000AF78607B685B6903F0010318460C37D0
:105A1000BD465DF8047B704780B485B000AF786008
:105A20000023FB60FB680133FB60FB68B3F1706F20
:105A300001D9032322E07B681B69002BF2DA0A23D9
:105A4000FB6002E0FB68013BFB60FB68002BF9D1C7
:105A50007B681B6943F001027B681A61FB680133B4
:105A6000FB60FB68B3F1706F01D9032306E07B682C
:105A70001B6903F00103012BF0D0002318461437F3
:105A8000BD465DF8047B70472DE9FF4757EC106B6E
:105A9000002F0C4619463B46BBBF07F100431F468B
:105AA00000232D230B700D9BDDF830A0914623F0D1
:105AB0002008BCBF32461646B8F1460F05D0B8F1F3
:105AC000450F00D10134022100E0032103AB019313
:105AD00002AB009347EC106B5346224600F0D8FD12
